:100000000C94CE0E0C94FF0E0C94FF0E0C94FF0E6D
:100010000C94FF0E0C94FF0E0C94FF0E0C94FF0E2C
:100020000C94FF0E0C94FF0E0C94FF0E0C94FF0E1C
:100030000C94FF0E0C94FF0E0C94FF0E0C94FF0E0C
:100040000C94FF0E0C942C750C94FF0E0C94FF0E68
:100050000C94FF0E0C94FF0E0C94C4500C94786119
:100060000C94FF0E0C946D300C9463300C94FF0EC6
:100070000C94FF0E0C94FF0E0C94FF0E0C94FF0ECC
:100080000C94A92B0C94FF0E0C94FF0E0C94FF0EF5
:100090000C94FF0E0C94FF0E0C94FF0E0C94FF0EAC
:1000A0000C94FF0E0C94FF0E0C947C2B0C94FF0E02
:1000B0000C94FF0E0C94FF0E0C94FF0E0C944F2B1F
:1000C0000C94FF0E0C94FF0E0C94FF0E0C94FF0E7C
:1000D0000C94FF0E0C94FF0E0C94FF0E0C94FF0E6C
:1000E0000C94FF0E8D4F6050655078507D509050AD
:1000F0009C507D4F7B5F7E5F6D5F715F775FB55F0B
:10010000825F865F8C5F905F945F9A5F9E5FA25F65
:10011000B55FA85FAC5FB05F946099609E60A860B7
:10012000B2602B61BC60C460CC60D660E060EA6005
:10013000F96003612B610D6117612161084AD73BAA
:100140003BCE016E84BCBFFDC12F3D6C74319ABDA6
:1001500056833DDA3D00C77F11BED9E4BB4C3E91CA
:100160006BAAAABE000000803F05A84CCDB2D44EB9
:10017000B93836A9020C50B9918688083CA6AAAABB
:100180002ABE000000803F004E414E494E4954595E
:10019000494E46CDCCCC3D0AD7233C17B7D1387752
:1001A000CC2B329595E6241FB14F0A000020410068
:1001B00000C84200401C4620BCBE4CCA1B0E5AAEB2
:1001C000C59D74434F4D4D554E49434154494F4E83
:1001D0000044525952554E004552524F5253004915
:1001E0004E464F004543484F006F6B003F5A206F0B
:1001F0007574206F662072616E676520282D32301D
:1002000020746F203230290A0050726F6265205AC4
:10021000204F66667365743A2000454550524F4D35
:100220002064697361626C65640A00546F6F2066B4
:1002300061722066726F6D207265666572656E63AD
:100240006520706F696E740A00FFFFFF00000000F8
:1002500000000000000000004D65736820706F69A9
:100260006E742063616E6E6F7420626520726573B8
:100270006F6C7665640A004D34323120696E636FAD
:10028000727265637420706172616D65746572204D
:1002900075736167650A0064697300656E004329C0
:1002A0000A0061626C656420286D696E2074656D5A
:1002B000702000436F6C6420657874727564657398
:1002C000206172652000496E76616C6964206578F2
:1002D0007472756465720A0020643A0020693A00FD
:1002E00020703A00206F7574206F662072616E670F
:1002F000650A00536572766F20003A20002053652E
:1003000072766F200020466C6F773A2000486F7439
:10031000656E64206F6666736574733A004F464677
:10032000004F4E00205A00205900580020204D61F7
:10033000783A2000205A00205900580020204D69AA
:100340006E3A2000536F667420656E6473746F702C
:10035000733A20005741524E494E4721204C6F7747
:10036000205A204A65726B206D6179206C6561644A
:1003700020746F20756E77616E746564207061758E
:100380007365732E0A002054002052004163636598
:100390006C65726174696F6E3A2050002F2F2000D7
:1003A0004348414D4245525F54454D50455241549A
:1003B000555245004D4F54494F4E5F4D4F444553A4
:1003C00000544845524D414C5F50524F54454354A0
:1003D000494F4E004155544F5245504F52545F5370
:1003E000445F5354415455530050524F4D50545F45
:1003F000535550504F525400454D455247454E437A
:10040000595F50415253455200434153455F4C4957
:100410004748545F4252494748544E45535300544D
:100420004F47474C455F4C494748545300534F464C
:1004300054574152455F504F574552004255494C21
:10044000445F50455243454E54004C4556454C4937
:100450004E475F44415441005A5F50524F4245005D
:100460004155544F4C4556454C005052494E545FEF
:100470004A4F420050524F47524553530041555442
:100480004F5245504F52545F54454D5000564F4CBB
:10049000554D455452494300454550524F4D004239
:1004A000494E4152595F46494C455F5452414E5363
:1004B0004645520053455249414C5F584F4E5F5894
:1004C0004F4646004649524D574152455F4E414DB9
:1004D000453A4D61726C696E206275676669782D68
:1004E000322E302E7820284769746875622920538F
:1004F0004F555243455F434F44455F55524C3A6810
:10050000747470733A2F2F6769746875622E636F05
:100510006D2F4D61726C696E4669726D776172659F
:100520002F4D61726C696E2050524F544F434F4CA7
:100530005F56455253494F4E3A312E30204D41437C
:1005400048494E455F545950453A334420507269EA
:100550006E7465722045585452554445525F434F5E
:10056000554E543A3220555549443A6365646532D4
:100570006132662D343161322D343734382D396291
:1005800031322D6335356336326633363766660A67
:10059000006F6B0020573A004D3131332053006F0C
:1005A000666600E401DF01D801D101C30144454280
:1005B00055473A0020573A0050726F74656374656E
:1005C000642050696E0A002569730025696D202535
:1005D0006973002569682025696D202569730025E8
:1005E0006964202569682025696D202569730025C7
:1005F000697920256964202569682025696D202591
:100600006973005072696E742074696D653A2000D8
:100610004D65736820706F696E742063616E6E6FD4
:1006200074206265207265736F6C7665640A0020C1
:100630005A3A200020593A200042656420583A2056
:1006400000486F6D652058592066697273740A00FE
:1006500047322F47332062616420706172616D659B
:10066000746572730A001C3F1D2F0E0F27301F2068
:100670001E312223212528240A4409FF4308FF456F
:100680000A050001627573793A20706175736564BB
:1006900020666F7220696E7075740A0062757379D6
:1006A0003A2070617573656420666F72207573659A
:1006B000720A00627573793A2070726F63657373A2
:1006C000696E670A004B494C4C2063617573656421
:1006D00020627920746F6F206D75636820696E6188
:1006E00063746976652074696D65202D2063757269
:1006F00072656E7420636F6D6D616E643A20005098
:1007000072696E7465722068616C7465642E206B0A
:10071000696C6C28292063616C6C6564210A005047
:1007200072696E7465722073746F70706564206492
:10073000756520746F206572726F72732E20466922
:100740007820746865206572726F7220616E642013
:10075000757365204D39393920746F207265737453
:100760006172742E202854656D70657261747572A3
:10077000652069732072657365742E20536574203B
:100780006974206166746572207265737461727435
:10079000696E67290A006563686F3A004572726F77
:1007A000723A0042696C696E656172204C657665CB
:1007B0006C696E6720477269643A0A0020746F6F33
:1007C000206C6F6E6720657874727573696F6E2028
:1007D00070726576656E7465640A0020636F6C6480
:1007E00020657874727573696F6E207072657665B6
:1007F0006E7465640A0053544F502063616C6C65DD
:10080000642062656361757365206F6620424C5495
:100810006F756368206572726F72202D2072657328
:10082000746172742077697468204D3939390A000F
:1008300053544F502063616C6C6564206265636142
:10084000757365206F6620424C546F756368206530
:1008500072726F72202D20726573746172742077CA
:10086000697468204D3939390A004F46460A0046F6
:10087000616465204865696768742000426564208A
:100880004C6576656C696E6720004661696C6564CD
:1008900020746F20656E61626C6520426564204C37
:1008A0006576656C696E670A00496E76616C69648D
:1008B000206D6573682E0A00202844525952554E07
:1008C0002900473239204175746F20426564204CFD
:1008D0006576656C696E67003F20284C2C522C466B
:1008E0002C4229206F7574206F6620626F756E64CC
:1008F000732E0A003F2856296572626F7365206C5B
:100900006576656C20697320696D706C61757369BB
:10091000626C652028302D34292E0A004261642043
:100920005A2076616C75650A004E6F2062696C69A9
:100930006E65617220677269640A004265642068AE
:10094000656174696E67206661696C6564004865FD
:100950006174696E67206661696C65640042454434
:1009600020544845524D414C2052554E4157415913
:1009700000546865726D616C2052756E61776179A3
:100980000045312048656174696E67206661696C55
:1009900065640045322048656174696E6720666150
:1009A000696C65640048656174696E672066616999
:1009B0006C656400453120544845524D414C2052ED
:1009C000554E4157415900453220544845524D41FA
:1009D0004C2052554E4157415900546865726D6123
:1009E0006C2052756E617761790070012C01900165
:1009F0002701B0012201C0011D01F0011801100200
:100A0000130130020E016002090190020401C002CC
:100A1000FF000003FA004003F5008003F000D0035C
:100A2000EB002004E6007004E100E004DC00400577
:100A3000D700C005D2004006CD00D006C800800710
:100A4000C3003008BE00F008B900C009B400B00A05
:100A5000AF00B00BAA00D00CA500000EA000500FF4
:100A60009B00C01096005012910000148C00C0151D
:100A70008700B0178200B0197D00D01B7800001EDF
:100A8000730040206E0090226900F024640040272B
:100A90005F0090295A00E02B5500102E50002030A6
:100AA0004B0010324600E033410090353C001037D7
:100AB000370070383200A0392D00B03A2800A03B32
:100AC0002300603C1E00103D1900903D1400103EB4
:100AD0000F00703E0A00C03E0500003F0000403F8E
:100AE000FBFF803FF6FFC03FF1FF453220544845F1
:100AF000524D414C2052554E4157415900453120ED
:100B0000544845524D414C2052554E415741590091
:100B100042454420544845524D414C2052554E4187
:100B200057415900546865726D616C2052756E6151
:100B3000776179004532204572723A204D41585410
:100B4000454D50004531204572723A204D41585470
:100B5000454D50004572723A204D415854454D5014
:100B600020424544004D415854454D50207472690F
:100B7000676765726564004532204572723A204DA0
:100B8000494E54454D50004531204572723A204D32
:100B9000494E54454D50004572723A204D494E54CD
:100BA000454D5020424544004D494E54454D50203E
:100BB00074726967676572656400202F00204000C9
:100BC0002042403A0020403A00496E76616C6964E8
:100BD0002065787472756465720A00416374697681
:100BE000652045787472756465723A2000205A0059
:100BF000204500205A00205900204D39322058004D
:100C000020496E76616C69642065787472756465DC
:100C10007220004361703A00526573656E643A2039
:100C2000005072696E7465722073746F70706564C1
:100C30002064756520746F206572726F72732E2048
:100C400046697820746865206572726F7220616EE3
:100C50006420757365204D39393920746F207265B1
:100C600073746172742E202854656D70657261749E
:100C70007572652069732072657365742E205365E3
:100C80007420697420616674657220726573746182
:100C90007274696E67290A004E6F20436865636B42
:100CA00073756D2077697468206C696E65206E7548
:100CB0006D6265722C204C617374204C696E653ACC
:100CC0002000636865636B73756D206D69736D617A
:100CD0007463682C204C617374204C696E653A20F3
:100CE000004C696E65204E756D62657220697320D7
:100CF0006E6F74204C617374204C696E65204E7564
:100D00006D6265722B312C204C617374204C696EBE
:100D1000653A20004D3131300023646566696E65A7
:100D20002044454641554C545F004B6420004B69BC
:100D300020004B702000504944204175746F747539
:100D40006E652066696E69736865642120507574EC
:100D500020746865206C617374204B702C204B6983
:100D600020616E64204B6420636F6E7374616E74D7
:100D7000732066726F6D2062656C6F7720696E7488
:100D80006F20436F6E66696775726174696F6E2E4E
:100D9000680A00504944204175746F74756E65206F
:100DA0006661696C6564212074696D656F75740A8C
:100DB00000453220544845524D414C2052554E4139
:100DC00057415900453120544845524D414C20521D
:100DD000554E415741590042454420544845524DD3
:100DE000414C2052554E4157415900546865726D2F
:100DF000616C2052756E61776179004532204865DB
:100E00006174696E67206661696C656400453120B4
:100E100048656174696E67206661696C656400424B
:100E200065642068656174696E67206661696C65D8
:100E3000640048656174696E67206661696C656409
:100E400000504944204175746F74756E6520666169
:100E5000696C6564212054656D706572617475728A
:100E60006520746F6F20686967680A00204B643AD8
:100E70002000204B693A2000204B703A20000A20C5
:100E8000436C617373696320504944200A00205405
:100E9000753A2000204B753A2000206D61783A2089
:100EA00000206D696E3A200020643A2000206269BB
:100EB00061733A2000504944204175746F74756E17
:100EC000652073746172740A00504944204175743E
:100ED0006F74756E65206661696C65642120546568
:100EE0006D706572617475726520746F6F206869CA
:100EF00067680A00504944204175746F74756E65C7
:100F0000206661696C6564212042616420657874A3
:100F10007275646572206E756D6265720A002020BC
:100F2000506C616E6E657242756666657242797468
:100F300065733A20002046726565204D656D6F72BD
:100F4000793A2000436F6D70696C65643A204A7588
:100F50006E20333020323031390A00207C20417538
:100F600074686F723A20286E6F6E652C2064656617
:100F700061756C7420636F6E666967290A00323090
:100F800031382D30312D323000204C6173742055B2
:100F90007064617465643A20006275676669782DD3
:100FA000322E302E780A004D61726C696E0020532B
:100FB0006F6674776172652052657365740A0020EC
:100FC0005761746368646F672052657365740A00C3
:100FD0002042726F776E206F75742052657365744E
:100FE0000A002045787465726E616C2052657365E5
:100FF000740A00506F77657255700A0073746172DD
:10100000740A00205A3A0020593A0020583A0065E4
:101010006E6473746F7073206869743A2000000006
:101020002100240027002A002D0030003300010198
:101030000000040107010A01000022002500280029
:101040002B002E00310034000201000005010801D0
:101050000B01000020002300260029002C002F0097
:101060003200000100000301060109010505050524
:10107000070508080808020202020A0A0808040410
:10108000040401010101010101010303030303033E
:101090000303040707070C0C0C0C0C0C0C0C0202CD
:1010A000020206060606060606060B0B0B0B0B0BCA
:1010B0000B0B010210202008081020401020408057
:1010C000020102010804020101020408102040800C
:1010D000804020100804020180040201804020109A
:1010E00008040201080402010102040810204080E3
:1010F000010204081020408000000A0B02090C0DB8
:101100000E080703040100000000000000000000BA
:1011100000000000000000000000000000000000CF
:10112000000000001211100000000000000000008C
:101130000000000000000000000000000000486106
:101140007264636F6465642044656661756C7420C5
:1011500053657474696E6773204C6F616465640ACB
:1011600000B80B0000B80B0000640000001027005E
:101170000000009643000096430000F0410000C8C4
:10118000435555854255558542000070449A99C68D
:10119000423A0A00546F6F6C2D6368616E67696E26
:1011A000673A0A0020204D383531205A005A2D5018
:1011B000726F6265204F666673657400204400207C
:1011C000490020204D333031205000204400204978
:1011D0000020500020204D3330312045005049443C
:1011E0002073657474696E67733A0A00204A0020A0
:1011F000204732392057204900205A0020204D3402
:1012000032302053004175746F20426564204C6574
:1012100076656C696E673A0A0020590020580020F4
:10122000204D323138205400486F74656E64206F51
:101230006666736574733A0A00205A0020590020CC
:10124000204D323036205800486F6D65206F66663D
:101250007365743A0A00204500205A002059002086
:10126000580020540020530020204D3230352042B9
:101270000020453C6D61785F655F6A65726B3E007A
:1012800020583C6D61785F785F6A65726B3E2059CB
:101290003C6D61785F795F6A65726B3E205A3C6D88
:1012A00061785F7A5F6A65726B3E00416476616E59
:1012B0006365643A20423C6D696E5F7365676D6576
:1012C0006E745F74696D655F75733E20533C6D6924
:1012D0006E5F66656564726174653E20543C6D693D
:1012E0006E5F74726176656C5F6665656472617469
:1012F000653E0020540020520020204D3230342022
:101300005000416363656C65726174696F6E20287B
:10131000756E6974732F7332293A20503C7072696C
:101320006E745F616363656C3E20523C72657472DB
:101330006163745F616363656C3E20543C747261E9
:1013400076656C5F616363656C3E0A002045002032
:101350005A0020590020204D3230312058004D6174
:1013600078696D756D20416363656C657261746940
:101370006F6E2028756E6974732F7332293A0A00D4
:10138000204500205A0020590020204D32303320C3
:1013900058004D6178696D756D2066656564726190
:1013A0007465732028756E6974732F73293A0A0067
:1013B00053746570732070657220756E69743A0A93
:1013C0000020204D3230302044300A0020204D32A1
:1013D000303020543120440020204D323030204421
:1013E000002044697361626C65640A0046696C613F
:1013F0006D656E742073657474696E67733A00204E
:10140000286D6D29002020473231202020203B20EC
:10141000556E69747320696E206D6D006F70656E16
:1014200000545249474745524544003A20007A5FEC
:101430006D696E00795F6D696E00785F6D696E0031
:101440005265706F7274696E6720656E6473746F35
:1014500070207374617475730A00205A3A00205921
:101460003A0020436F756E7420583A0020453A00C8
:10147000205A3A0020593A00583A000000874300A9
:10148000008C430000344300000000000000000016
:1014900000000020746F6F206C6F6E672065787499
:1014A000727573696F6E2070726576656E746564AF
:1014B0000A0020636F6C6420657874727573696FBD
:1014C0006E2070726576656E7465640A00486F6D93
:1014D000696E67206661696C6564000000484200BF
:1014E000004842000080405761726E696E673A2082
:1014F000486F6D696E672042756D7020446976692A
:10150000736F72203C20310A000202040000A040E8
:101510000000A040000000400000874300008C4312
:101520000000344324F4D43050C38E20C2A24017AC
:10153000828B7011127A910D816CD90AA861E10831
:10154000C7586607615143061E4B5D05C145A70498
:101550001A411104093D9803713931034036DB0209
:1015600065339102D4305402802E1D02632CEE01AB
:10157000752AC501B028A001102781018F256401BB
:101580002B244B01E0223401AC211F018D200D01E1
:10159000801FFC00841EED00971DDF00B81CD200E8
:1015A000E61BC600201BBC00641AB200B219A800DA
:1015B0000A19A0006A189900D117910040178B00F2
:1015C000B516840031167E00B31579003A15730004
:1015D000C7146F0058146A00EE1366008813630086
:1015E00025135E00C7125B006C12570015125400E1
:1015F000C111510070114F0021114B00D61049004C
:101600008D1047004610440002104200C00F4000F9
:10161000800F3E00420F3C00060F3B00CB0E38000F
:10162000930E37005C0E3500270E3400F30D3200A8
:10163000C10D3100900D3000600D2E00320D2D00D7
:10164000050D2C00D90C2B00AE0C2900850C2900AF
:101650005C0C2700350C27000E0C2600E80B24003C
:10166000C40B2400A00B23007D0B23005A0B210088
:10167000390B2100180B2000F80A1F00D90A1E00A0
:10168000BB0A1E009D0A1D00800A1D00630A1C0083
:10169000470A1B002C0A1B00110A1A00F7091A003E
:1016A000DD091900C4091900AB09190092091700D6
:1016B0007B091800630917004C091600360916004B
:1016C000200916000A091500F5081500E0081400A5
:1016D000CC081400B8081400A408140090081300E3
:1016E0007D0812006B08130058081200460812000B
:1016F000340811002308110012081100010811001C
:10170000F0071000E0071000D0071000C00710001D
:10171000B0070F00A107100091070E0083070F000C
:1017200074070F0065070E0057070E0049070E00EB
:101730003B070D002E070E0020070D0013070D00BC
:1017400006070D00F9060C00ED060D00E0060C0082
:10175000D4060C00C8060C00BC060C00B0060C0039
:10176000A4060B0099060C008D060B0082060B00E8
:1017700077060B006C060B0061060A0057060B008B
:101780004C060A0042060A0038060A002E060A0025
:1017900024060A001A060A001006090007060A00B5
:1017A000FD050900F4050900EB050900E205090043
:1017B000D9050900D0050900C7050900BE050900C3
:1017C000B5050800AD050800A50509009C05080041
:1017D000940508008C050800840508007C050800B5
:1017E000740508006C050700650508005D05070025
:1017F000560508004E05070047050700400508008C
:1018000038050700310507002A05070023050700F2
:101810001C050600160507000F0507000805060051
:1018200002050700FB040600F5040700EE040600AD
:10183000E8040600E2040700DB040600D504060005
:10184000CF040600C9040600C3040600BD04060058
:10185000B7040600B1040500AC040600A6040600A7
:10186000A00405009B0406009504050090040600F2
:101870008A04050085040500800406007A0405003A
:1018800075040500700405006B040500660405007E
:10189000610405005C0405005704050052040500BE
:1018A0004D04050048040500430405003E040400FF
:1018B0003A04050035040500300404002C0405003A
:1018C00027040400230405001E0404001A04040075
:1018D00016040500110404000D04040009040500A9
:1018E0000404040000040400FC030400F8030400E2
:1018F000F4030400F0030400EC030400E803040014
:10190000E4030400E0030400DC030400D803040043
:10191000D4030400D0030400CC030400C803030074
:10192000C503030024F404D9201BC40C5C0E9804E6
:10193000C4095F0265077101F405F900FB04B300F7
:1019400048048700C103690058035500030345009C
:10195000BE023A008402310053022A002902250007
:1019600004022000E4011C00C8011900AF011700A7
:10197000980114008401130071011000610110002E
:1019800051010E0043010D0036010B002B010B002D
:1019900020010B00150109000C01090003010800DA
:1019A000FB000800F3000800EB000700E40006005D
:1019B000DE000600D8000600D2000600CC000500BC
:1019C000C7000500C2000500BD000400B900040006
:1019D000B5000400B1000400AD000400A90004003B
:1019E000A5000300A20003009F0004009B00030069
:1019F000980003009500020093000300900003008C
:101A00008D0002008B0003008800020086000200A7
:101A100084000300810002007F0002007D000200BC
:101A20007B000200790002007700010076000200CE
:101A30007400020072000100710002006F000200D9
:101A40006D0001006C0002006A00010069000200E4
:101A500067000100660001006500010064000200EB
:101A60006200010061000100600001005F000200EF
:101A70005D0001005C0001005B0001005A000100F4
:101A800059000100580001005700010056000100F4
:101A900055000100540001005300000053000100F4
:101AA0005200010051000100500001004F000100F0
:101AB0004E0000004E0001004D0001004C000100EE
:101AC0004B0000004B0001004A00010049000100EA
:101AD00048000000480001004700010046000000E7
:101AE00046000100450000004500010044000100DF
:101AF00043000000430001004200000042000100DA
:101B00004100000041000100400001003F000000D2
:101B10003F0001003E0000003E0001003D000000CB
:101B20003D0001003C0000003C0000003C000100C2
:101B30003B0000003B0001003A0000003A000100B9
:101B400039000000390001003800000038000000B2
:101B500038000100370000003700010036000000A7
:101B6000360000003600010035000000350000009E
:101B70003500010034000000340000003400010092
:101B80003300000033000000330001003200000089
:101B9000320000003200010031000000310000007E
:101BA0003100010030000000300000003000010072
:101BB0002F0000002F0000002F0000002F00010068
:101BC0002E0000002E0000002E0001002D0000005D
:101BD0002D0000002D0000002D0001002C00000051
:101BE0002C0000002C0000002C0001002B00000045
:101BF0002B0000002B0000002B0001002A00000039
:101C00002A0000002A0000002A000100290000002C
:101C1000290000002900000029000000290001001F
:101C20002800000028000000280000002800000014
:101C30002800010027000000270000002700000006
:101C400027000000270001002600000026000000F9
:101C500026000000260000002600010025000000EC
:101C600025000000250000002500000025000000E0
:101C700025000100240000002400000024000000D2
:101C800024000000240001002300000023000000C5
:101C900023000000230000002300000023000000B8
:101CA00023000100220000002200000022000000AA
:101CB000220000002200000022000100210000009C
:101CC0002100000021000000210000002100000090
:101CD0002100000021000100200000002000000081
:101CE0002000000020000000200000002000000074
:101CF00020000000200001001F0000001F00000065
:101D00001F0000001F0000001F0000001F00000057
:101D10001F0001001E0000001E0000001E00000049
:101D20001E000000043700001E290000511B0000A7
:101D30005810000010090000CC04000078020000D8
:101D400041010000626564002C2073797374656D35
:101D50002073746F707065642120486561746572CA
:101D60005F49443A200050726F62696E6720666175
:101D7000696C65640A002066697273740A00486FB2
:101D80006D652000220A00556E6B6E6F776E2063C2
:101D90006F6D6D616E643A202200ED8411241FBEC8
:101DA000CFEFD1E2DEBFCDBF00E00CBF12E0A0E07C
:101DB000B2E0E0E0F1E201E00BBF02C007900D925B
:101DC000A63AB107D9F72DE0A6EAB2E001C01D920C
:101DD000A637B207E1F71EE0CEECDEE000E006C079
:101DE00021970109802FFE010E944390CD3CD1072D
:101DF00080E00807A9F70E9427810C947E900C943C
:101E000000002F923F924F925F926F927F928F923B
:101E10009F92AF92BF92CF92DF92EF92FF920F9379
:101E20001F93CF93DF93CDB7DEB7C155D1090FB65E
:101E3000F894DEBF0FBECDBF91E090930504809172
:101E400004048D3411F40C94F117843511F40C94BE
:101E50003F24873411F00C945F24209002043090CA
:101E600003042CE12216310409F488C5D4F444E0BB
:101E7000241631044CF452E0251631040CF043C012
:101E800037FE35C00C94ED1784E02816310409F4B0
:101E900036C595E12916310411F40C9461240C9493
:101EA000ED17AAE22A16310409F4D0C764F4EDE173
:101EB0002E16310409F445C6FEE12F16310409F44B
:101EC00044C60C94ED172BE52216310409F4F6C62E
:101ED0003CE52316310409F4F5C64AE5241631041D
:101EE00011F00C94ED17109201040C946124809170
:101EF0002F02882311F40C9461240E94695E0E94D1
:101F0000C8700C94612480912F02882311F40C94E2
:101F100061240E94695E82E50E94A440882309F43E
:101F200030C10E9424406B017C0120E030E0A90117
:101F30000E942B89882309F4DAC44090C30C509086
:101F4000C40C6090C50C7090C60C8091C70C909129
:101F5000C80CA091C90CB091CA0C8A8F9B8FAC8F12
:101F6000BD8F2091F1033091F2034091F303509122
:101F7000F4032E8F3F8F48A359A38091F5039091CE
:101F8000F603A091F703B091F8038AA79BA7ACA72B
:101F9000BDA7C301B2010E942B8981110DC02AA5E2
:101FA0003BA54CA55DA56A8D7B8D8C8D9D8D0E947A
:101FB0002B89882309F49BC411E092E0291631048F
:101FC00009F010E020E030E0A901C701B6010E944D
:101FD0002B89881F8827881F181749F020E030E0D8
:101FE00040E85FEB2EA73FA748AB59AB08C080E0A5
:101FF00090E0A0E8BFE38EA79FA7A8ABB9ABA30171
:1020000092016E8D7F8D88A199A10E945A8D6EA339
:102010007FA388A799A72A8D3B8D4C8D5D8D6AA5DE
:102020007BA58CA59DA50E945A8D6AA37BA38CA33A
:102030009DA32EA13FA148A559A5CA01B9010E949F
:1020400090894B015C012AA13BA14CA15DA1CA0171
:10205000B9010E9490899B01AC01C501B4010E94A5
:102060005B8D0E94C68F4B015C019B01AC0160E05F
:1020700070E080E89FE30E94378E6AAB7BAB8CAB4D
:102080009DAB20E030E040E05FE3C501B4010E9479
:1020900090894B015C01A7019601C701B6010E941E
:1020A00090896B017C01A5019401C501B4010E94D6
:1020B00090899B01AC01C701B6010E945A8D0E9414
:1020C000C68F2EA53FA548A959A90E9490894B010A
:1020D0005C016AA17BA18CA19DA190582AA93BA972
:1020E0004CA95DA90E949089A50194010E94908944
:1020F0006B017C012E8D3F8D48A159A1C301B20116
:102100000E945B8D20E030E040E05FE30E94908918
:102110009B01AC01C701B6010E945B8DA301920136
:102120000E945A8D6B017C012AA53BA54CA55DA59B
:102130006A8D7B8D8C8D9D8D0E945B8D20E030E0C3
:1021400040E05FE30E9490892B013C012AA93BA952
:102150004CA95DA96EA17FA188A599A50E9490892F
:10216000A50194010E9490899B01AC01C301B201B9
:102170000E945B8D2A8D3B8D4C8D5D8D0E945A8D0A
:1021800014C089E40E94A440882329F00E942440BE
:102190006B017C0103C0C12CD12C76018AE40E9422
:1021A000A4408823D9F00E9424406AA77BA78CA76B
:1021B0009DA720E030E0A901C701B6010E942B894C
:1021C00081111AC020E030E0A9016AA57BA58CA589
:1021D0009DA50E942B8981110FC089C320E030E0AA
:1021E000A901C701B6010E942B89882309F47FC386
:1021F0001AA61BA61CA61DA6A701960150582A8F39
:102200003B8F4C8F5D8F8AA59BA5ACA5BDA5B05813
:102210008E8F9F8FA8A3B9A3CA01B9010E9490898C
:102220004B015C012E8D3F8D48A159A1CA01B90116
:102230000E9490899B01AC01C501B4010E945B8D95
:102240000E94C68F26966CAF7DAF8EAF9FAF26974C
:102250002091C30C3091C40C4091C50C5091C60C18
:102260002EA33FA348A759A7A70196016EA17FA15E
:1022700088A599A50E945B8D6AAB7BAB8CAB9DABAF
:102280008091C70C9091C80CA091C90CB091CA0C58
:102290008EA79FA7A8ABB9AB2AA53BA54CA55DA56A
:1022A000BC01CD010E945B8D22966CAF7DAF8EAFDD
:1022B0009FAF22972091F1033091F2034091F303F5
:1022C0005091F4032EAB3FAB48AF59AF2AA93BA9BD
:1022D0004CA95DA96EA97FA988AD99AD0E945A8DC0
:1022E0006B017C018091F5039091F603A091F703B7
:1022F000B091F8038AAF9BAFACAFBDAF22962CADC7
:102300003DAD4EAD5FAD2297BC01CD010E945A8D0F
:102310004B015C012091CB0C3091CC0C4091CD0C49
:102320005091CE0C2A962CAF3DAF4EAF5FAF2A979F
:102330006091F9037091FA038091FB039091FC0383
:102340000E945A8D6AA37BA38CA39DA3A70196012B
:102350006A8D7B8D8C8D9D8D0E9490892B013C0117
:10236000A50194016E8D7F8D88A199A10E9490890D
:102370009B01AC01C301B2010E945B8D2B013C01AA
:10238000A50194016A8D7B8D8C8D9D8D0E94908915
:102390004B015C01A70196016E8D7F8D88A199A1EB
:1023A0000E9490899B01AC01C501B4010E945A8D25
:1023B000A30192010E94CE8D6B017C0120E030E0F0
:1023C000A9010E942B8987FF0AC02BED3FE049EC51
:1023D00050E4C701B6010E945B8D6B017C012BEDBF
:1023E0003FE049EC50E4C701B6010E94378E20E07F
:1023F00030E040EC51E40E9490890E94218E0E94BE
:10240000A48E8B01672B11F401E010E032E023165B
:10241000310451F42BED3FE049EC50E4C701B60123
:102420000E945A8D6B017C0120E030E0A901C701B8
:10243000B6010E942B89811122C02EA93FA948AD67
:1024400059AD6EA17FA188A599A50E942B89811104
:1024500016C02AAD3BAD4CAD5DAD6EA57FA588A97C
:1024600099A90E942B8981110AC008E110E03BED77
:10247000C32E3FE0D32E39ECE32E30E4F32EA70138
:10248000960126966CAD7DAD8EAD9FAD26970E94D0
:1024900090894B015C0120E030E0A9016AA17BA199
:1024A0008CA19DA10E942B898823D9F0A5019401BC
:1024B000C501B4010E9490894B015C012AA13BA196
:1024C0004CA15DA1CA01B9010E9490899B01AC0198
:1024D000C501B4010E945B8D0E94C68F4B015C0157
:1024E0000DC020E030E0A901C501B4010E94818F38
:1024F00087FF04C0B7FAB094B7F8B0942FE632E182
:1025000043E85AE3C501B4010E942B8987FDE3C16A
:102510004090CF0C5090D00C6090D10C7090D20CA9
:10252000C501B4010E94D08E0E94A48E1B016017C9
:10253000710708F41801B10180E090E00E942F8932
:102540004B015C019B01AC01C701B6010E94378EB3
:102550006EA37FA388A799A7A50194016AA17BA177
:102560008CA19DA10E94378E26966CAF7DAF8EAF59
:102570009FAF2697A30192016091FD037091FE0326
:102580008091FF03909100040E945A8DA50194014F
:102590000E94378E2E966CAF7DAF8EAF9FAF2E9779
:1025A0002EA13FA148A559A5CA01B9010E94908951
:1025B00020E030E040E05FE30E9490899B01AC01A5
:1025C00060E070E080E89FE30E945A8D6EAB7FABC5
:1025D00088AF99AF2A968CAD9DADAEADBFAD2A97B1
:1025E00089879A87AB87BC874D865E866F86788A97
:1025F00060912D0270912E02072E000C880B990B12
:102600000E943189209168023091690240916A02EA
:1026100050916B020E9490892AE037ED43E25CE31F
:102620000E9490896E8B7F8B888F998F0E946C613E
:102630009B01AC0128533F4F4F4F5F4F2AAF3BAF39
:102640004CAF5DAF4A8C5B8C6C8C7D8C41E050E074
:102650005BA34AA359E15EA78AA19BA182159305BA
:1026600008F00FC10E94A8520E946C61DC01CB01EE
:102670002AAD3BAD4CAD5DAD821B930BA40BB50BEE
:10268000B7FD0EC00E946C619B01AC0128533F4F07
:102690004F4F5F4F2AAF3BAF4CAF5DAF0E94352C21
:1026A0003EA531503EA73323E9F12E8D3F8D48A141
:1026B00059A16EA97FA988AD99AD0E9490896B013F
:1026C0007C019201A3016EA17FA188A599A50E941A
:1026D0009089A70196010E945B8D7B018C0192017C
:1026E000A3016EA97FA988AD99AD0E9490894B0185
:1026F0005C012E8D3F8D48A159A16EA17FA188A5B7
:1027000099A50E9490899B01AC01C501B4010E946A
:102710005A8D2B013C01C701D8018E8F9F8FA8A332
:10272000B9A34FC04AA15BA1BA0180E090E00E942A
:102730002F892EA13FA148A559A50E9490894B0140
:102740005C010E94348E6B017C01C501B4010E94C2
:10275000BC8F4B015C01A70196016A8D7B8D8C8D2E
:102760009D8D0E9490892B013C012AA53BA54CA57B
:102770005DA5C501B4010E949089A30192010E9448
:102780005B8D2B013C01A50194016A8D7B8D8C8DA5
:102790009D8D0E9490894B015C012AA53BA54CA50B
:1027A0005DA5C701B6010E9490899B01AC01C501DE
:1027B000B4010E945A8D6E8F7F8F88A399A359E12F
:1027C0005EA79201A3016AA97BA98CA99DA90E9479
:1027D0005B8D69837A838B839C832E8D3F8D48A18B
:1027E00059A122966CAD7DAD8EAD9FAD22970E9412
:1027F0005B8D6D837E838F83988726962CAD3DAD50
:102800004EAD5FAD269769857A858B859C850E9444
:102810005B8D69877A878B879C872E962CAD3DAD23
:102820004EAD5FAD2E976D857E858F8598890E9410
:102830005B8D6D877E878F87988BCE0101960E9476
:102840003170A12CB12C20E8C22E2FE3D22EE090C3
:10285000EC038E010A5E1F4F9E01235F3F4FAE01C6
:10286000475F5F4FBE016B5F7F4FCE0101960E94B5
:10287000E169882331F08AA19BA101969BA38AA3D9
:10288000EBCE80E1E1EFF3E0DE01119601900D92D5
:102890008A95E1F7A12CB12C90E8C92E9FE3D92E9F
:1028A000E090EC038E010A5E1F4F9E01235F3F4FB5
:1028B000AE01475F5F4FBE016B5F7F4FCE01019658
:1028C0000E94E16980E1FE013196A3ECBCE0019039
:1028D0000D928A95E1F70E946C616093ED0370930D
:1028E000EE038093EF039093F0030C9461240E9415
:1028F000FC2B80E596E00E94DD2B0C94612480E5A2
:102900000E94A440882379F08091EA039091EB0320
:10291000009749F04AE050E060E070E00E94B08724
:102920006B017C0103C0C12CD12C760183E50E9490
:10293000A440882361F00E94244020E030E04AE770
:1029400054E40E9490890E94A48E6B017C010E9435
:10295000AD6A0E946C61C60ED71EE81EF91E0E9469
:102960006C61DC01CB018C199D09AE09BF09B7FD73
:1029700002C00C9461240E94352CF1CF60E08FE4FA
:102980000E94C740882339F08091B20C877087304D
:1029900011F40C9461240E94AD6A80E00E944044CE
:1029A000B090EC0321E040E050E0BA0180E00E94EA
:1029B000DB4B0E94427481E08093E9030E9407642C
:1029C00088E50E945B40182F89E50E945B40082F34
:1029D0008AE50E945B40101303C0181719F0012FFD
:1029E000F82E04C001E011E0FF24F3940E94E73FB9
:1029F00082E50E94A440882361F00E9424402B01BC
:102A00003C0120E030E0A9010E942B89882361F17C
:102A100006C0412C512C80E2682E81E4782E1111E1
:102A200002C0002359F14092F9035092FA036092D8
:102A3000FB037092FC03A30192016091CB0C709197
:102A4000CC0C8091CD0C9091CE0C0E942B8987FFED
:102A50000BC019821A821B821C82BE016F5F7F4FDE
:102A600089EF93E00E946174112319F080E00E94C5
:102A7000F76E002319F081E00E94F76EFF2009F441
:102A80004DC080E00E94A9418091A10C83708330E9
:102A900039F00E94FF2B81E496E00E94DD2B3EC0BE
:102AA0000E944163E090CB0CF090CC0C0091CD0CD7
:102AB0001091CE0CE092F903F092FA030093FB031D
:102AC0001093FC0380E090E0A0E0B3E48093F10376
:102AD0009093F203A093F303B093F40380E090E0AB
:102AE000A5E3B3E48093F5039093F603A093F70373
:102AF000B093F80319821A821B821C82DE011196A0
:102B00006D0120E030E045E353E460E070E080E0F8
:102B100093E40E94F96182E00E94F76E0E94416393
:102B20008091E8038093E9030E94297421E040E04A
:102B300050E0BA018B2D0E94DB4B0E9464640C9420
:102B400061240E94B8460C94612420E030E040EEFD
:102B500050E46091C30C7091C40C8091C50C9091AD
:102B6000C60C0E945B8DAB01BC0188E50E94065635
:102B70006E8B7F8B888F998F20E030E044E252E4A7
:102B80006091C70C7091C80C8091C90C9091CA0CCF
:102B90000E945A8DAB01BC0189E50E9406569B013B
:102BA000AC0169837A838B839C836E897F89888D4E
:102BB000998D0E94645C882311F40C94612480E058
:102BC0000E9440440E94427461E085E40E94C74034
:102BD00021E0482FBE016F5F7F4FCE0146960E94D5
:102BE000907E6B017C019B01AC010E9407908111DA
:102BF0005FC08E889F88A88CB98C20E030E0A90146
:102C0000C501B4010E942B8987FF05C027E137EB7E
:102C100041E558EB04C027E137EB41E558E3C50136
:102C2000B4010E945B8DAB01BC0189E396E00E9478
:102C30003C3089809A80AB80BC8020E030E0A901E4
:102C4000C501B4010E942B8987FF05C027E137EB3E
:102C500041E558EB04C027E137EB41E558E3C501F6
:102C6000B4010E945B8DAB01BC0184E396E00E943D
:102C70003C3020E030E0A901C701B6010E942B8959
:102C800087FF05C027E137EB41E558EB04C027E19A
:102C900037EB41E558E3C701B6010E945B8DAB01FC
:102CA000BC018FE296E00E943C308AE00E94D62B65
:102CB0000E9429740E9464640C946124909301041E
:102CC0000C946124BCE62B2EB2E03B2E1CEDE12ED1
:102CD00013E0F12EE3ECFCE0FB8FEA8F02EAC02E5A
:102CE0000CE0D02E00E010E0D1018D911D010E947A
:102CF000A440882309F44BC00E9424402B013C01CE
:102D0000133049F0F60120813181428153810E94C4
:102D10005A8D2B013C01AA8DBB8D2D913D914D917A
:102D20005C91C301B2010E945A8D4B015C012DEBF5
:102D300037E346E855EB0E94818F87FD0AC02DEBF3
:102D400037E346E855E3C501B4010E942B89181604
:102D5000F4F4133051F44092CF0C5092D00C6092A6
:102D6000D10C7092D20C01E012C0A5019401F701C0
:102D700060817181828193810E945B8DD7016D9307
:102D80007D938D939C931397812F0E94D76E1F5F25
:102D9000B4E0EB0EF11CEA8DFB8D3496FB8FEA8FCD
:102DA000F4E0CF0ED11C143009F09ECF002309F4BB
:102DB00049C02091B4033091B5034091B6035091BE
:102DC000B7036091CF0C7091D00C8091D10C909191
:102DD000D20C0E9490890E948C8F6093680D709332
:102DE000690D80936A0D90936B0D9091460D8091C3
:102DF000470D981719F00E944F6A24C00E94AD6ACF
:102E000080916F00982F927081FF05C080916F00B4
:102E10008D7F80936F004091680D5091690D609196
:102E20006A0D70916B0D40939003509391036093E2
:102E3000920370939303992329F080916F0082602D
:102E400080936F000E9464640C94612480912F022F
:102E5000882311F40C94612489E40E94A440082F73
:102E6000882321F00E942140E82E01C0E12C8AE451
:102E70000E94A440182F882321F00E942140F82EA0
:102E800001C0F12C002319F022E02E1528F01123A7
:102E900049F032E03F1530F480E196E00E94DD2BEE
:102EA0000C9461240E94E73F0023F1F020917C0301
:102EB00030917D034E2D4203B001439F700D1124CC
:102EC0008091800390918103680F791F072E000C79
:102ED000880B990B0E9431896093F1037093F20380
:102EE0008093F3039093F4031123F1F020917E0378
:102EF00030917F035F2D5203B001539F700D112459
:102F00008091820390918303680F791F072E000C34
:102F1000880B990B0E9431896093F5037093F60337
:102F20008093F7039093F80360E080E50E94C74028
:102F3000882381F10023B1F020E030E040EE50E43E
:102F40006091F1037091F2038091F3039091F40387
:102F50000E945A8D6093F1037093F2038093F30300
:102F60009093F4031123B1F020E030E044E252E406
:102F70006091F5037091F6038091F7039091F80347
:102F80000E945B8D6093F5037093F6038093F703C3
:102F90009093F80340E050E0BA0186E40E940656A0
:102FA0006B017C0120E030E0A9010E94818F18169E
:102FB00084F420E030E040E752E4C701B6010E940B
:102FC000378E609368027093690280936A029093CF
:102FD0006B020E94C8700C9461240E94517E0C9474
:102FE000612400910204109103040C38110509F4C6
:102FF000A3C40CF094C00936110509F4C6C40CF042
:103000004EC00D34110509F42CC2DCF40F3111054A
:1030100009F444C154F40131110509F438C10231F5
:10302000110509F421C50C943C240B34110509F455
:10303000FFC10CF001C20A32110509F4D6C10C948B
:103040003C240435110509F40FC5DCF402351105E3
:1030500009F403C50CF004C50135110511F00C94F9
:103060003C240E944A510E94F1550E94B76B109275
:103070007B0368EE73E080E090E00E94D0290C941E
:1030800061240C35110509F43BC50836110509F416
:10309000ECC10535110511F00C943C2418C501371D
:1030A000110509F422C4B4F40D36110509F403C264
:1030B00054F40B36110509F4C7C40CF49FC41092E4
:1030C0002C020C9461240F36110509F4BDC30CF4D5
:1030D000A8C304C40637110509F41EC66CF40337EF
:1030E000110509F4B0C50CF4A9C50537110511F493
:1030F0000C9461240C943C240837110509F449C64A
:103100000CF444C60937110511F00C943C241092BC
:10311000E9031092E8030E9407640C9461240D32C5
:1031200081E0180711F40C9410220CF049C00E3CF9
:10313000110509F401C7FCF4093C110509F49AC60C
:1031400074F40E3B110509F410C4083C110509F490
:1031500028C60B39110511F00C943C2429C40C3CF1
:10316000110509F4CFC60CF0D7C60B3C110509F4C4
:10317000A8C60C943C240C3D110511F40C94CB20F2
:1031800074F4093D110509F4B0C70A3D110509F4AD
:10319000C0C7033D110511F00C943C24F0C6023E5B
:1031A000110511F40C942E210831A1E01A0711F435
:1031B0000C9479210D3D110511F00C943C24F8C7B5
:1031C000053AB1E01B0711F40C94FB2284F5013998
:1031D000F1E01F0711F40C94F22294F40F3231E065
:1031E000130711F40C94EF2214F40C94AB22003961
:1031F000114011F00C943C240E94AD6A0C9461249F
:103200000A3981E0180709F46DC3043A91E01907FF
:1032100011F40C94F8220239114011F00C943C2462
:1032200080E00E94D57C0E9464640C946124063F77
:10323000B1E01B0711F40C94F42384F4043FF1E093
:103240001F0711F40C94E82314F00C94EE230C3AAD
:10325000114011F40C9460230C943C24033543E09A
:10326000140711F40C94F723073E53E0150711F4EB
:103270000C943024073F114011F00C943C2461E081
:1032800083E50E94C7400E94B6660C94612417989B
:10329000A2984798449841980C9461240E9416641F
:1032A0007B018C0120E831E541E050E00E94038D74
:1032B000C9016DE671E00E942F904B015C01C801CD
:1032C000B70120E13EE040E050E00E94038DCA01DA
:1032D000B90128E130E040E050E00E94038D762EF5
:1032E000672EC62ED72EACE32A2E312C412C512C22
:1032F000C801B701A20191010E94038DF62EE72EAD
:10330000CA01B901A20191010E94038DCB018E0176
:103310000F5F1F4F8114910499F0EF92FF927F93FA
:103320006F936F927F92BF92AF929F928F928FEE28
:1033300095E09F938F931F930F930E94FD8813C076
:10334000A114B104B1F0EF92FF927F936F936F924B
:103350007F92BF92AF928FED95E09F938F931F93D3
:103360000F930E94FD880FB6F894DEBF0FBECDBF4D
:1033700030C0CD2879F0EF92FF927F936F936F92D8
:103380007F9283ED95E09F938F931F930F930E94FD
:10339000FD88E9CF892B69F0EF92FF927F936F93BD
:1033A0008BEC95E09F938F931F930F930E94FD8862
:1033B000DACFEF92FF9287EC95E09F938F931F9364
:1033C0000F930E94FD880F900F900F900F900F9019
:1033D0000F900E94FF2BB80183E096E00E94EB2B38
:1033E0008AE00E94D62B0C94612483E50E94A440BD
:1033F000882311F40C9461240E940140F82E6DE0A2
:1034000070E080E50E94B0408C0197FF02C00C94F0
:103410006124E82E60E089E40E94C74081110C9489
:103420007224802F0E94D380811135C70C9472249E
:103430000E94CD550C94612480917A03813011F063
:103440000C94612482E080937A030E946C61609303
:1034500076037093770380937803909379030C94A9
:1034600061240E94F1550C9461248091750383FFBF
:1034700002C00C9461240E94EC5E182F87FF02C0EA
:103480000C94612483E50E94A440882381F00E946B
:1034900024400E949F8EDC01CB017C01612F0E94A1
:1034A000995A56E5E516F10414F40E94F1550E946C
:1034B000F7800C9461248091750383FF02C00C9403
:1034C00061240E94EC5E8E8F87FF02C00C94612401
:1034D00083E50E94A4408EAB811106C082E50E9464
:1034E000A440182F8823C1F00E9424400E949F8E80
:1034F000DC01CB016E8D0E94995A0E94244020E08D
:1035000030E04AEA52E40E942B89181614F40C9415
:1035100085240E94F15511E00E94F780112311F4D7
:103520000C94612481E080932C021EA21FA218A695
:1035300019A61AAE1BAE1CAE1DAE27968FAF2797ED
:103540001AA623961FAE23979CE32B969FAF2B972B
:10355000ACE12F96AFAF2F97B6E46096BFAF609700
:10356000C12CD12CE0E8EE2EFFEBFF2E812C912C0C
:103570005401EE8DF7E1EF02C0011124895B9C4FED
:103580009C01285F3F4F62963FAF2EAF6297AC0120
:103590004C5F5F4F5B8F4A8F6296AEADBFAD629757
:1035A0006D917C91072E000C880B990B0E9431893C
:1035B000162F072F382E292E9601A7010E942B893E
:1035C0008823E1F0EA8DFB8D208131814281538196
:1035D000FEA9612F702F832D922DF11107C00E943B
:1035E0002B89881F8827881F8AA70CC00E942B89D7
:1035F00087FF02C00C9461241AA604C01C2D0D2D57
:103600003E2C2F2C0E946C616B017C01DC01CB01F4
:103610002AAD3BAD4CAD5DAD821B930BA40BB50B3E
:10362000B7FD33C0D701C60188519C4FAF4FBF4F84
:103630008AAF9BAFACAFBDAF8E8D0E945C4E84EB6A
:1036400095E00E94DD2B81149104A104B104B9F02E
:10365000D501C401805F984DAF4FBF4FBC01CD0174
:103660006C197D098E099F0928EE33E040E050E097
:103670000E94038DCA01B9010E94272F03C08FE366
:103680000E94D62B8AE00E94D62B0E94352C0E94E5
:103690006C616093ED037093EE038093EF0390935E
:1036A000F003AA8DBB8DBC91BAA3EA8DFB8DF1818D
:1036B000FEA7AA8DBB8D1296BC91BAABEA8DFB8D8D
:1036C000F381FEAF2AA13EA54B2F5F2F612F702FF4
:1036D000832D922D0E945A8D2B013C0120E030E079
:1036E000A9010E94818F87FF04C077FA709477F850
:1036F000709481149104A104B104C1F420E030E07D
:1037000040E85FE3C301B2010E942B8987FF1AC022
:1037100027962FAD279746015701222399F030E1D4
:10372000830E37E2931EA11CB11C0CC020E030E0D8
:1037300040E450E4C301B2010E94818F181614F4D2
:10374000460157014AA5442309F44AC08EA19FA10E
:10375000A8A5B9A5892B8A2B8B2B61F0D701C601AF
:103760002EA13FA148A559A5821B930BA40BB50B15
:10377000B7FD36C02AA13EA54AA95EAD23966FAD1E
:1037800023972B967FAD2B972F968FAD2F97609613
:103790009FAD60970E945A8D20E030E040EC5FE3DF
:1037A0000E942B8987FF02C00C946124D701C601B7
:1037B000805A9541AF4FBF4F8EA39FA3A8A7B9A72B
:1037C0009AA123969FAF2397AEA52B96AFAF2B97C9
:1037D000BAA92F96BFAF2F97EEAD6096EFAF609767
:1037E00080912C02882311F40C946124811491049B
:1037F000A104B10441F427961FAE2797C12ED02E05
:10380000E32CF22CC9CEF0E1CF1AF7E2DF0AE1088F
:10381000F108C818D908EA08FB08F7FCECCF0C94AB
:1038200061248EE40E94A440882311F40C94612446
:103830000E94F13F609343037093440380934503D8
:10384000909346030C94612483E50E945B40882397
:1038500031F060E083E50E94BD40809375030E94D3
:10386000FF2B8DEA95E00E94DD2BC0907503CC20E4
:1038700069F173EAA72E75E0B72E00E010E080E052
:10388000D12CE12CF12CB701A601002E04C07695B5
:103890006795579547950A94D2F740FF0EC0992433
:1038A0009394980E882319F08CE20E94D62BF50190
:1038B000859194910E94DD2B892D0F5F1F4F22E08F
:1038C000A20EB11C05301105F1F604C08FE995E098
:1038D0000E94DD2B8AE00E94D62BF3C780E090E0A7
:1038E0000E94162C0E94F729ECC783E50E94A44091
:1038F000882371F00E940140282F30E02D333105DC
:103900001CF480932B02DDC78CE380932B02D9C774
:103910000E94FF2BC0902B02D12CE12CF12C88E9C6
:1039200095E00E94DD2B4AE0C701B6010E94BC2E43
:103930008AE00E94D62BC5C78091750383FDC1C75D
:1039400083E50E94A440882309F4BBC70E94244059
:103950000E949F8E6C3871050CF48B01109341030B
:10396000009340030E94FB50ACC78091750383FD18
:10397000A8C783E50E94A4408AAB8111CAC782E52B
:103980000E94A4408111C5C79CC70E94EC5E182FFD
:1039900087FD0AC081E995E00E94DD2B812F0E94FE
:1039A0005C4E8AE00E94D62B109205040C945A2794
:1039B00083E50E94A440882309F483C70E94014044
:1039C000182F90E0CD970CF01CE3109337030E9462
:1039D0006C616B017C01212F30E0A8EEB3E00E9406
:1039E0004B8DC60ED71EE81EF91EC0923303D0922F
:1039F0003403E0923503F092360363C760E080E55C
:103A00000E94BD4081115DC781E40E945B40882314
:103A100041F0E091EC03F0E0E558FC4F6081062FA7
:103A200002C00FEF10E083E50E94A440882349F014
:103A30000E94F13F8B016F3F710519F010F00FEFFD
:103A400010E000937B033DC760E080E50E94BD402D
:103A5000811137C710927B0334C71092320331C7EC
:103A600081E0809332032DC783E50E94A440882320
:103A700099F00E94244020E030E04AE754E40E949C
:103A800090890E94A48E60932702709328028093ED
:103A9000290290932A0215C788E50E945B40811194
:103AA0000C94FF2589E50E945B4081110C94FF2551
:103AB0008AE50E945B4081110C94FF2585E40E94F9
:103AC0005B4081110C94FF250E94B76BFAC683E519
:103AD0000E945B40882309F4F4C60E94244020E041
:103AE00030E04AE754E40E9490890E94A48E6093DB
:103AF0002B0370932C0380932D0390932E03E1C628
:103B00000E94EC5E87FDDDC69091270394FD04C002
:103B10009091290397FF0AC03CE6C32E32E0D32ED2
:103B200044E9E42E43E0F42E10E009C090912A030A
:103B3000937091F7682F81E00E94165FC2C6D6018C
:103B40008D916D010E94A440882309F46DC013304B
:103B500009F063C00E9424404B015C0120E030E08A
:103B600040EA51E40E942B8987FF4EC0A5019401D1
:103B70006091B4037091B5038091B6039091B7033F
:103B80000E94378E2B013C019B01AC016091230305
:103B90007091240380912503909126030E949089BF
:103BA000609323037093240380932503909326034B
:103BB000A30192016091C4037091C5038091C60373
:103BC0009091C7030E9490896093C4037093C503CA
:103BD0008093C6039093C7036091130370911403FD
:103BE00080911503909116030E942F89A3019201E1
:103BF0000E9490890E94A48E609313037093140313
:103C000080931503909316038092B4039092B503AA
:103C1000A092B603B092B70307C00E942440F701F8
:103C2000648B758B868B978B1F5FF4E0EF0EF11C16
:103C3000143009F084CF0E94EF3E43C60E94AD6A63
:103C40000E9464643EC684EC94E00E94DD2B60E038
:103C500084EB94E00E944F5E60E08FE994E00E9464
:103C60004F5E60E088E994E00E944F5E61E08DE87D
:103C700094E00E944F5E61E08DE794E00E944F5E09
:103C800060E084E794E00E944F5E61E08AE694E0A1
:103C90000E944F5E61E080E694E00E944F5E61E02A
:103CA00088E594E00E944F5E61E08AE494E00E941F
:103CB0004F5E60E08CE394E00E944F5E60E08DE236
:103CC00094E00E944F5E60E08FE194E00E944F5EBE
:103CD00060E089E094E00E944F5E60E088EF93E04E
:103CE0000E944F5E60E089EE93E00E944F5E60E0CC
:103CF00084ED93E00E944F5E61E081EC93E00E94CE
:103D00004F5E60E084EB93E00E944F5E60E080EAEB
:103D100093E00E944F5ED5C5009105031091060304
:103D200083E0F12C40E08150E9F0D8019C91292FEB
:103D30002B7F2134C1F711962C912133A1F79134B7
:103D400021F0953421F441E002C0FF24F39498015E
:103D50002E5F3F4F89012F5F3F4FF80190819032D6
:103D6000C9F3E1CF41110E94FF2BFF2021F08CE924
:103D700093E00E94DD2BD8018D918D01882319F0ED
:103D80000E94D62BF8CF0E944B309BC50E94B46393
:103D900098C581E08093E9038093E8030E9407645B
:103DA00090C50E94EC5E182F87FD8BC584E40E94AD
:103DB0005B40882309F45BC00E9424406B017C01B6
:103DC00001E020E030E0A9010E942B89811101C0AF
:103DD00000E00093040320E030E0A901C701B60130
:103DE0000E942B89882309F442C00E942440B4E039
:103DF0001B02F0011124E450FD4F60837183828324
:103E0000938320E030E0A9016091FC027091FD02F3
:103E10008091FE029091FF020E942B8981110CC0BB
:103E200080E090E0A0EEBFE38093FC029093FD025F
:103E3000A093FE02B093FF0220E030E0A901609160
:103E400000037091010380910203909103030E948B
:103E50002B8981110CC080E090E0A0EEBFE380933D
:103E6000000390930103A0930203B09303030E9405
:103E7000076C27C50E94EC5E87FD23C59CE6E92EF2
:103E800092E0F92E04E913E024EAC22E23E0D22EB8
:103E9000F70181917F010E945B40882351F00E94CD
:103EA00024400E94A48ED8016D937D938D939C93A2
:103EB00013970C5F1F4FC016D10651F70E94A83E02
:103EC00000C50E94EC5E87FDFCC48CE6E82E82E013
:103ED000F82E04E913E0F70181917F010E945B4015
:103EE000882349F00E942440D80194966D937D93D5
:103EF0008D939C9397970C5F1F4FB3E0043A1B0779
:103F000051F7DFC48091280387FDA4C6809129035F
:103F10008E7009F09FC6E4C680912703827109F074
:103F200006C7809129038C7809F001C780912A0384
:103F3000837009F0FCC6C5C41CE6C12E12E0D12E68
:103F400000EFE02E02E0F02E10E0F60181916F010B
:103F50000E945B40882359F00E942440D7016D9352
:103F60007D938D939C931397812F0E94D76E1F5F33
:103F7000B4E0EB0EF11C133041F70C9422170E94B1
:103F8000FF2B84E493E00E94DD2B83E50E945B40DD
:103F9000882321F00E9412408093260280912602FD
:103FA000882319F081E293E002C08DE193E00E9442
:103FB000DD2B8CE393E00E94DD2B2091A20C30914D
:103FC000A30C4091A40C5091A50C60910E0270912D
:103FD0000F0280911002909111020E945B8DAB0143
:103FE000BC018AE393E00E943C302091A60C309102
:103FF000A70C4091A80C5091A90C609116027091E9
:10400000170280911802909119020E945B8DAB01FA
:10401000BC0187E393E00E943C302091AA0C3091D0
:10402000AB0C4091AC0C5091AD0C60911E027091A4
:104030001F0280912002909121020E945B8DAB01B2
:10404000BC0184E393E00E943C308CE293E00E9448
:10405000DD2B2091A20C3091A30C4091A40C509127
:10406000A50C60911202709113028091140290913C
:1040700015020E945B8DAB01BC018AE293E00E94B5
:104080003C302091A60C3091A70C4091A80C509187
:10409000A90C60911A0270911B0280911C029091F0
:1040A0001D020E945B8DAB01BC0187E293E00E9480
:1040B0003C302091AA0C3091AB0C4091AC0C50914B
:1040C000AD0C6091220270912302809124029091A4
:1040D00025020E945B8DAB01BC0184E293E00E944B
:1040E0003C308AE00E94D62BECC38AE50E94A440B3
:1040F000882351F00E9424406093EC027093ED02FB
:104100008093EE029093EF0280912A0381FDD9C340
:1041100092C60E94EC5E182F87FDD3C388E50E94EB
:10412000A440882361F00E94244024E01202F001A0
:104130001124EC52FD4F608371838283938389E560
:104140000E94A440882361F00E94244034E01302BE
:10415000F0011124E452FD4F6083718382839383C5
:104160008AE50E94A440882361F00E94244044E034
:104170001402F0011124EC51FD4F6083718382839E
:1041800093838091290387FD9CC380912A038370C8
:1041900009F097C354C683E50E94A440882309F41C
:1041A00090C30E94214090932E0280932D0289C3D8
:1041B0000E94EC5EF82E87FD84C383E50E94A44034
:1041C0000F2D0F2C000C110B882369F10E94214048
:1041D000F801EE0FFF1FE65FFD4F91838083000F14
:1041E000111F000F111FF801EE5FFD4F7F01BC0191
:1041F000990F880B990B0E9431892AE037ED43E231
:104200005CE30E949089F801E453FD4F20813181E5
:10421000428153810E949089D7016D937D938D9344
:104220009C9313974EC30E94FF2B85E40E94D62BCC
:1042300080E38F0D0E94D62B000F111FF801E65F5F
:10424000FD4F6081718185E093E00E94412F85E2FE
:104250000E94D62B8AE00E94D62B33C380E50E94B1
:104260005B40882309F42DC360E070E080E50E9484
:10427000B040F82E6FEF7FEF83E50E94B0408C01D5
:104280000196039708F01DC3F7FC1BC38F2D0E94F6
:10429000D380882339F00E94FC2B88EB95E00E94A4
:1042A000DD2B0FC30E94AD6A60E08F2D0E9431604C
:1042B0000F3FBFEF1B0731F00130110571F000E037
:1042C00010E00DC08F2D0E94DB5F31E020E0892BD4
:1042D00009F030E0032F122F02C001E010E08F2D13
:1042E0000E94DB5F8017910709F4EBC20E94352C16
:1042F000F6CF80E50E945B40882309F4E2C20E9469
:1043000021408C01892B09F07FC083E50E945B402E
:10431000882389F00E9421408F3FEFEF9E0729F408
:1043200080E49DE00E94242ACCC2BC0180E49DE090
:104330000E94632AC6C20E94FF2B60E070E08DEFEE
:1043400092E00E94412F8091420D28E532E0690100
:10435000C81AD10887FDD394CC0CDD1CCC0CDD1C15
:104360000D2C000CEE08FF088091410D28E830E08C
:104370004901881A910887FD9394880C991C880C30
:10438000991C092C000CAA08BB088091400D8F3F96
:10439000C1F090E0FC01EE0FFF1F8E0F9F1FFC018C
:1043A000ED52F34F2181328153E0220F331F5A9592
:1043B000E1F764E0369527956A95E1F72E5F3F4F68
:1043C00002C020E030E02F5F3F4FC901330FAA0B3E
:1043D000BB0B9C01AD01281939094A095B09A4EB03
:1043E000B0E00E94418DA7019601281939094A09B8
:1043F0005B090E94258DB9018AEF92E00E94412F4E
:104400008AE00E94D62B5DC20E94FC2BB80183EF8C
:1044100092E00E94412F84EE92E00E94DD2B51C277
:1044200060E085E40E94BD40082F823008F08CC017
:1044300080E50E945B4010E0882371F00E942440D8
:1044400027E1209FF001219FF00D1124E95BFC4F33
:10445000638774878587968789E40E945B408823F9
:10446000C9F00E94244047E1409F9001419F300DD8
:104470001124A901495B5C4F7A012CEA35EC47E233
:104480005EE30E949089D7011F966D937D938D9373
:104490009C93529784E40E945B408823C9F00E9459
:1044A000244047E1409F9001419F300D1124F901C4
:1044B000E95BFC4F7F012CEA35EC47E25EE30E94AA
:1044C000378ED70153966D937D938D939C9356971A
:1044D0000E94FF2B27E1209FC001219F900D1124F6
:1044E0008C01095B1C4FF8014385548565857685F1
:1044F00080EE92E00E943C302CEA35EC47E25EE32D
:10450000D8011F966D917D918D919C9152970E943B
:10451000378EAB01BC018CED92E00E943C302CEA5E
:1045200035EC47E25EE3F8016389748985899689F1
:104530000E949089AB01BC0188ED92E00E943C3062
:104540008AE00E94D62BBDC10E94FC2B86EC92E033
:104550000E94DD2BB6C183E50E945B40182F8823A3
:1045600071F00E9424400E949F8E7093010260931C
:10457000000221E0672B09F020E02093CB0280E5C8
:104580000E945B40882359F0209100023091010283
:10459000232B11F00E9412408093CB0292C1111183
:1045A00090C10E94FF2B83EB92E00E94DD2B809153
:1045B000CB02882319F08BE992E002C087E992E0F0
:1045C0000E94DD2B609100027091010282EA92E06C
:1045D0000E94412F8EE992E00E94DD2B72C10E9461
:1045E0001D566FC181E00E94D57C0E94646469C140
:1045F0000E94834466C16FEF7FEF89E40E94B04060
:10460000182F6FEF7FEF8AE40E94B040082F8AE5F1
:104610000E945B40F82E811105C081E50E945B403D
:10462000D82E01C0D12C17FD06C007FD04C0F11023
:1046300009C0D11007C00E94FC2B87E792E00E94BE
:10464000DD2B3FC1133010F4033038F00E94FC2BF7
:1046500088E592E00E94DD2B34C1E12E110FFF08A6
:10466000002E000C110B0E942440D701AA0FBB1F83
:10467000DD2081F0FD01EE0DFF1DE00FF11FEE0FBB
:10468000FF1FEE0FFF1FE955FD4F20813181428151
:10469000538103C020E030E0A901EA0EFB1E0E0D9D
:1046A0001F1D000F111F000F111F09551D4F0E94E4
:1046B0005B8DD8016D937D938D939C93139701C16E
:1046C0000E945F7E8111FDC00CE412E0E3ECFCE08F
:1046D000FB8FEA8F9E012F5F3F4F590129E4822E05
:1046E00022E0922E1501F8016591759185919491C2
:1046F000AA8DBB8DCD90DD90ED90FD90BB8FAA8FE4
:10470000A70196010E945A8D2B013C01F1016083A3
:1047100071838283938320E030E040EA51EC0E9471
:10472000818F87FD0AC020E030E040EA51E4C301F8
:10473000B2010E942B8918162CF4F40184911816EA
:104740000CF4ADC3D101CD90DD90ED90FD901D0135
:1047500020E030E040EA51ECC701B6010E94818FB1
:1047600087FD0AC020E030E040EA51E4C701B6010D
:104770000E942B8918163CF40E94FC2B8BE292E0DD
:104780000E94DD2B9EC00C5F1F4FBFEF8B1A9B0A50
:10479000E8E5F2E0E017F10709F0A5CF90EFE92E88
:1047A00092E0F92E10E0F50181919191A191B191E2
:1047B0005F01F70181939193A193B1937F01812FC1
:1047C0000E94D76E1F5F133071F70E94646479C036
:1047D0000E94FC2B8AE192E0F0D773C00E9415651D
:1047E00080E00E94B6666DC00E9415656AC08AE5C9
:1047F0000E94A440882321F10E9424406B017C0187
:1048000020E030E040EA51EC0E94818F87FD13C028
:1048100020E030E040EA51E4C701B6010E942B8954
:1048200018164CF0C092AE0CD092AF0CE092B00CC7
:10483000F092B10C46C0E0D78CEE91E0BED741C0FB
:10484000DED74091AE0C5091AF0C6091B00C7091DE
:10485000B10C89E092E00E943C308AE0A7D731C0D9
:1048600081E080932F0260E083E50E94C7408111C0
:1048700028C00E94B45A25C00E94517E22C01091C7
:1048800002048091EC03181731F060E083E50E9488
:10489000C740082F01C001E040E050E0BA0186E4C3
:1048A0000E94065620E030E040E752E40E94378E36
:1048B000AB01BC01202F812F0E94DB4B02C00E9464
:1048C000517E10920504E091A602F0E0E459F24F07
:1048D0008081882309F4EEC289EE91E06ED78AE0E8
:1048E00065D7E8C261E0802F0E9431606F2D802F74
:1048F0000E9403606F2D70E0802F0E946D60F5E0D4
:10490000EF12DFCFF0927B03DCCF0E94CD550C94E9
:104910008B1A0E9424400E949F8E6C3871050CF007
:104920006BC170934103609340030E94FB500E944F
:10493000244020E030E040EA50E40E94818F1816C5
:1049400014F40E94CD5581E080932C021E8E1F8EA0
:1049500018A219A222961CAE1DAE1EAE1FAE229743
:104960001A8E1AAE3CE327963FAF27974CE1239669
:104970004FAF239756E42B965FAF2B97C12CD12CCA
:1049800050E8E52E6FEBF62E8EAB812C912C540166
:104990006091400370914103072E000C880B990B26
:1049A0000E943189162F072F782E692E9601A701B4
:1049B0000E942B898823E9F020913C0330913D032C
:1049C00040913E0350913F039AA9612F702F872D8C
:1049D000911108C0962D0E942B89881F8827881F57
:1049E0008A8F0BC0962D0E942B8987FD6ACF1A8E65
:1049F00004C01C2D0D2D7E2C6F2C0E946C616B0150
:104A00007C01DC01CB0122962CAD3DAD4EAD5FADFE
:104A10002297821B930BA40BB50BB7FD33C0D701B4
:104A2000C60188519C4FAF4FBF4F22968CAF9DAFB0
:104A3000AEAFBFAF22978091EC030E945C4E84E939
:104A400095E0BBD681149104A104B104B9F0D5015D
:104A5000C401805F984DAF4FBF4FBC01CD016C19B1
:104A60007D098E099F0928EE33E040E050E00E9466
:104A7000038DCA01B9010E94272F02C08FE396D689
:104A80008AE094D6F2D60E946C616093ED03709335
:104A9000EE038093EF039093F00390913C039AA769
:104AA000A0913D03AEA3B0913E03BAA3E0913F03B2
:104AB000EEA7292F3A2F4B2F5E2F612F702F872DB6
:104AC000962D0E945A8D1B012C0120E030E0A90197
:104AD0000E94818F87FF04C057FA509457F8509472
:104AE00081149104A104B104B1F420E030E040E865
:104AF0005FE3C201B1010E942B8987FF18C0FEA9A4
:104B000046015701FF2399F020E1820E27E2921E11
:104B1000A11CB11C0CC020E030E040E450E4C20114
:104B2000B1010E94818F181614F4460157013A8D85
:104B3000332309F444C08E8D9F8DA8A1B9A1892B80
:104B40008A2B8B2B61F0D701C6012E8D3F8D48A19A
:104B500059A1821B930BA40BB50BB7FD30C02AA53E
:104B60003EA14AA15EA56AAD27967FAD2797239601
:104B70008FAD23972B969FAD2B970E945A8D20E0E7
:104B800030E040EC5FE30E942B8987FD9ACED7018D
:104B9000C601805A9541AF4FBF4F8E8F9F8FA8A3FC
:104BA000B9A39AA59AAFAEA12796AFAF2797BAA19E
:104BB0002396BFAF2397EEA52B96EFAF2B9780914F
:104BC0002C02882309F47DCE81149104A104B10440
:104BD00031F41EAAC12ED02EE72CF62CD9CEF0E14E
:104BE000CF1AF7E2DF0AE108F108C818D908EA0885
:104BF000FB08F7FCEECF65CE6CE870E092CE0E9429
:104C0000AD6A88E50E945B40882331F0179A809155
:104C1000A10C8E7F8093A10C89E50E945B408823C4
:104C200031F0A29A8091A10C8D7F8093A10C8AE52E
:104C30000E945B40882331F0479A8091A10C8B7FC2
:104C40008093A10C85E40E945B40882309F439CE4F
:104C5000CBD337CE83E50E94A440882391F00E94F5
:104C600024406093C8037093C9038093CA03909350
:104C7000CB036093D0037093D1038093D2039093BE
:104C8000D30380E50E94A440882351F00E94244071
:104C90006093C8037093C9038093CA039093CB03B6
:104CA00082E50E94A440882351F00E942440609332
:104CB000CC037093CD038093CE039093CF0384E510
:104CC0000E94A440882309F4FCCD0E9424406093F4
:104CD000D0037093D1038093D2039093D303F1CD8B
:104CE0004091C8035091C9036091CA037091CB03EE
:104CF0008CE893E00E943C304091CC035091CD036E
:104D00006091CE037091CF0389E893E00E943C301C
:104D10004091D0035091D1036091D2037091D3039D
:104D200086E893E00E943C308AE040D5CACD82E418
:104D30000E945B408823C1F08091EA039091EB03CD
:104D4000009739F04AE050E060E070E00E94B087E0
:104D500003C060E070E0CB016093A4037093A503EF
:104D60008093A6039093A70383E50E945B4088236A
:104D700051F00E9424406093D4037093D503809334
:104D8000D6039093D70384E50E945B40882351F0BB
:104D90000E9424406093D8037093D9038093DA0370
:104DA0009093DB0388E50E945B40882351F00E94CA
:104DB0002440609317037093180380931903909312
:104DC0001A0389E50E945B40882351F00E94244029
:104DD00060931B0370931C0380931D0390931E0329
:104DE0008AE50E945B408823A9F00E9424406093DA
:104DF0001F037093200380932103909322032DECD3
:104E00003CEC4CEC5DE30E942B8918161CF084E509
:104E100093E0D3D485E40E945B40882309F451CD0C
:104E20000E942440609323037093240380932503FE
:104E30009093260346CD80E00E94515F42CDDFD49F
:104E40008DE093E0BAD404ED12E08CEDE82E82E020
:104E5000F82E80E2ABD4D8016D917D918D919D911A
:104E60008D0142E00E944C2F8CE2A0D4F8016481B5
:104E700075818681978142E00E944C2F8CE296D406
:104E8000D8011C966D917D918D919C911F9743E067
:104E90000E944C2FE016F106E1F60C946A1CF7FA1A
:104EA000F094F7F8F094D101CD92DD92ED92FC925E
:104EB000139748CCCF5ADF4F0FB6F894DEBF0FBE22
:104EC000CDBFDF91CF911F910F91FF90EF90DF90B9
:104ED000CF90BF90AF909F908F907F906F905F909A
:104EE0004F903F902F900895CF92DF92EF92FF92D4
:104EF0000F931F93CF93DF936C018B017A01EC0129
:104F0000C75FDB4F888187FF04C0FB0111821082DD
:104F100024C02CE02C9DC0012D9D900D11242881D2
:104F2000AC01420F511D27FD5A9520913F0D30E0F5
:104F30004217530794F42881AC01420F511D27FDFD
:104F40005A959A01FA01EE0FFF1F2E0F3F1FF9012C
:104F5000ED52F34F208126FD19C088818F5F888331
:104F60002CE02C9DC0012D9D900D11242881AC01B9
:104F7000420F511D27FD5A9520913F0D30E04217F9
:104F80005307BCF428812C3044F113C02881820FD0
:104F9000911D27FD9A95FC01EE0FFF1F8E0F9F1F9D
:104FA000FC01ED52F34F808160E08F730E9403603B
:104FB000D4CFF80180819181049680349C4918F403
:104FC00080E49CE904C0F801808191810496F70196
:104FD000918380838FEF888345C0F80140815181A0
:104FE0002881BC01620F711D27FD7A959B01FB0191
:104FF000EE0FFF1F2E0F3F1FF901ED52F34F2181DE
:105000003281240F351FF701318320832881AC01C1
:10501000420F511D27FD5A959A01FA01EE0FFF1F0D
:105020002E0F3F1FF901ED52F34F208126FF1AC0CA
:105030002881820F911D27FD9A95FC01EE0FFF1F1D
:105040008E0F9F1FFC01ED52F34F808161E08F7343
:10505000DF91CF911F910F91FF90EF90DF90CF9054
:105060000C940360DF91CF911F910F91FF90EF900F
:10507000DF90CF9008952F923F924F925F926F9260
:105080007F928F929F92AF92BF92CF92DF92EF92D8
:10509000FF920F931F93CF93DF93CDB7DEB72E9779
:1050A0000FB6F894DEBF0FBECDBF182FF62E042F1B
:1050B000A22E282F30E03A872987862F90E09C8700
:1050C0008B87220F331FE985FA852E0F3F1F3E87FE
:1050D0002D87FC01E20FF31FEE0FFF1FEE0FFF1FE6
:1050E000E955FD4F60817181828193819B01AC0103
:1050F0000E940790882309F43AC1100F6F2D6A0DA2
:10510000812F90E0DC01AA0FBB1FA80FB91FEB8510
:10511000FC85EA0FFB1FEE0FFF1FEE0FFF1FE95587
:10512000FD4FB080C180D280E380100F812F90E0CE
:10513000AC01440F551F480F591FEB85FC85E40F48
:10514000F51FEE0FFF1FEE0FFF1FE955FD4FF0801B
:10515000018112819380862F90E0ED85FE85E80F16
:10516000F91FEE0FFF1FEE0FFF1FE955FD4F808067
:105170007180628053806A0D70E02D853E85260F18
:10518000371F220F331F220F331F29553D4F3E87F4
:105190002D87F90140803180A2802380A80FB91F9C
:1051A000AA0FBB1FAA0FBB1FA955BD4FFC91F983C6
:1051B00011962C9111972A8312963C9112973B835A
:1051C00013968C918C83FA01E60FF71FEE0FFF1FE9
:1051D000EE0FFF1FE955FD4F90819D8321812E83A6
:1051E00032813F83838188872F2D302F412F592D86
:1051F0006F2D702F812F992D0E940790882321F009
:10520000F12C00E010E0912C2B2D3C2D4D2D5E2D2E
:105210006B2D7C2D8D2D9E2D0E940790882319F0DB
:10522000BF2C6801E92C242D332D4A2D522D642DDD
:10523000732D8A2D922D0E940790882321F0412CF6
:10524000312CA12C212C282D372D462D552D682DA4
:10525000772D862D952D0E940790882321F0842C90
:10526000732C6A2C522C2D813E814F8158856D8183
:105270007E818F8198850E940790882321F01D826E
:105280001E821F82188629813A814B815C81698147
:105290007A818B819C810E940790882341F09D81B7
:1052A0009983EE81EA83FF81FB8328852C8389859E
:1052B0009A85880F991FE985FA858E0F9F1F2B8588
:1052C0003C85820F931F880F991F880F991F89555E
:1052D0009D4F9A8789872B2D3C2D4D2D5E2D6B2D53
:1052E0007C2D8D2D9E2D0E945B8D2F2D302F412FDB
:1052F000592D0E945A8D6B017C01282D372D462D8A
:10530000552D682D772D862D952D0E945B8D242D92
:10531000332D4A2D522D0E945A8D9B01AC01C7019D
:10532000B6010E945B8D6B017C0129813A814B8122
:105330005C8169817A818B819C810E945B8D2D814A
:105340003E814F8158850E945A8D9B01AC01C70157
:10535000B6010E945B8D20E030E040E450E40E9402
:10536000378EE985FA8560837183828393832E96D5
:105370000FB6F894DEBF0FBECDBFDF91CF911F9166
:105380000F91FF90EF90DF90CF90BF90AF909F90E4
:105390008F907F906F905F904F903F902F900895E7
:1053A000CF92DF92EF92FF926B017C0183E3C816EC
:1053B000D104E104F10470F082E3C81AD108E108D5
:1053C000F10862E370E080E090E00E9434610E94A6
:1053D000A852ECCFC701B6010E943461FF90EF9054
:1053E000DF90CF900C94A852449A419A08958091EE
:1053F0006F00982F927081FF05C080916F008D7FA4
:1054000080936F008091470D8093460D8093450DEA
:105410008093440D84E68093430D28EE33E030936F
:10542000630420936204992329F080916F008260C5
:1054300080936F0081E08093470C0E94AD6A8EEFED
:105440000E94B7620C944163DC01EC91F0E0CF0163
:10545000880F991FE80FF91FED52F34F80818F7B62
:1054600080830895009781F41092900082E08093E9
:1054700091001092950010929400C19A8091710051
:1054800082608093710008958130910569F41092D3
:10549000A00082E08093A1001092A5001092A400C9
:1054A00089BB809372000895029761F410922001E5
:1054B00082E08093210110922501109224018ABB81
:1054C0008093730008957F928F929F92AF92BF92C4
:1054D000CF92DF92EF92FF920F931F93CF93DF93C0
:1054E000FC019081943208F0CCC06B017F01892FC0
:1054F00090E0FC01EE0FFF1F8E0F9F1FFC01ED528D
:10550000F34F808161E08F730E943160F701118257
:10551000128280816CE00E942390FCE08F9FB0019A
:10552000112440E050E09B01240F351FF901EE0FDC
:10553000FF1F2E0F3F1FF901ED52F34F908196FD93
:1055400007C04F5F5F4F4C30510569F790E08ADF2D
:10555000F7017080C72DD0E08E01000F111FF801F8
:10556000EC0FFD1FED52F34F80818064808377FC48
:1055700088C0F0E2CF16F2E0DF060CF041C0F70180
:10558000828128E532E0281B310987FD3395220FFF
:10559000331F220F331F032E000C440B550B818148
:1055A00068E870E04B01881A910887FD9394880C95
:1055B000991C880C991C092C000CAA08BB08D7FC64
:1055C0000BC0B601653B710514F064EB70E0072E6B
:1055D000000C880B990B03C060E070E0CB01281928
:1055E00039094A095B090E94F48C24EB30E040E061
:1055F00050E00E94258D820E931EA41EB51E01C090
:105600004601F3E2F71558F1F701218188E890E0AF
:10561000821B910927FD9395880F991F880F991F69
:105620008816990684F0F701228188E592E0821BB2
:10563000910927FD9395880F991F880F991F881648
:1056400099060CF4C40102972FB7F894C00FD11F2C
:10565000CD52D34F880F991F9A8389832FBF62E35E
:1056600070E080E090E0DF91CF911F910F91FF906B
:10567000EF90DF90CF90BF90AF909F908F907F90F2
:105680008FCEDF91CF911F910F91FF90EF90DF9020
:10569000CF90BF90AF909F908F907F9008951F9272
:1056A0000F920FB60F9211240BB60F922F933F93C8
:1056B0004F935F936F937F938F939F93AF93BF931A
:1056C000EF93FF9348E251E064E271E082E090E002
:1056D0000BDCFF91EF91BF91AF919F918F917F91E3
:1056E0006F915F914F913F912F910F900BBE0F9053
:1056F0000FBE0F901F9018951F920F920FB60F922A
:1057000011240BB60F922F933F934F935F936F9398
:105710007F938F939F93AF93BF93EF93FF9348EA49
:1057200050E064EA70E081E090E0DEDBFF91EF9111
:10573000BF91AF919F918F917F916F915F914F91A9
:105740003F912F910F900BBE0F900FBE0F901F90A7
:1057500018951F920F920FB60F9211240BB60F924D
:105760002F933F934F935F936F937F938F939F9369
:10577000AF93BF93EF93FF9348E950E064E970E083
:1057800080E090E0B1DBFF91EF91BF91AF919F91ED
:105790008F917F916F915F914F913F912F910F90DA
:1057A0000BBE0F900FBE0F901F9018959091C000E8
:1057B00095FFFCCF8093C6000895CF93DF93FC0143
:1057C0008491EF012196882319F0F0DFFE01F8CFD4
:1057D000DF91CF9108950F931F93CF93DF938B01A8
:1057E000ECDFE8018991882311F0E0DFFBCFDF9146
:1057F000CF911F910F9108958CE997E0DECF86E954
:1058000097E0DBCF0E944A510E94F15580912F0210
:10581000882359F0F1DF8FE197E0CFDF6EE571E08B
:1058200080E090E0BDDD10922F0208950E944A5161
:10583000E3DF8FEF96E0C1DF89EE93E030E601977A
:1058400029F0232F2A950000E9F7F9CFF89489EE83
:1058500093E038EE019729F0232F2A950000E9F70D
:10586000F9CF0E944A51A895FECF2F923F924F92B6
:105870005F926F927F928F929F92AF92BF92CF92E0
:10588000DF92EF92FF920F931F93CF93DF93CDB7E9
:10589000DEB727970FB6F894DEBF0FBECDBF0E94CC
:1058A0006C616B017C0180912B02882339F180911E
:1058B0000504882319F140910C0450910D04609166
:1058C0000E0470910F0497018601041B150B260B23
:1058D000370B37FD26C0833069F034F4813074F023
:1058E0008EDF83EB96E009C0843041F488DF84E8E2
:1058F00096E003C084DF8CE996E05FDF20912B0205
:1059000030E0A8EEB3E00E944B8DC60ED71EE81E15
:10591000F91EC0920C04D0920D04E0920E04F09295
:105920000F0480914E07843010F40E94065B0E94A1
:105930006C616B017C0140912B0350912C036091B1
:105940002D0370912E03411551056105710509F173
:105950008091ED039091EE03A091EF03B091F003DD
:10596000840F951FA61FB71FA7019601281B390B8F
:105970004A0B5B0B57FD0DC03FDF6091B40C70917B
:10598000B50C85EC96E027DF8AE010DF80E090E040
:105990004DDF4091270250912802609129027091B9
:1059A0002A02411551056105710509F442C0909123
:1059B000460D8091470D981759F00E946C616093D5
:1059C000ED037093EE038093EF039093F00331C0E7
:1059D0008091ED039091EE03A091EF03B091F0035D
:1059E000840F951FA61FB71F97018601081B190B6F
:1059F0002A0B3B0B37FD1BC080911804811119C085
:105A000081E080931804179A8091A10C8E7F809377
:105A1000A10CA29A8091A10C8D7F8093A10C479A32
:105A20008091A10C8B7F8093A10CDEDC02C01092D0
:105A300018048091140490911504A0911604B0915B
:105A40001704A7019601281B390B4A0B5B0B57FD66
:105A50002CC19091460D8091470D981791F0E091DF
:105A6000470D3CE4E39FF0011124E353F84F6081BC
:105A70008091470D9091460D981729F08F5F8F7098
:105A8000F9CF60917B0370E085E00E946D608091AA
:105A90006004882309F4FCC0209034023090350261
:105AA000009136020F83109137021E8360914F03DD
:105AB000709150036E5F7F4F072E000C880B990B7F
:105AC0000E9431899101A8010E942B8987FDE0C0C5
:105AD0000091470D09831A821B821C821D828091CE
