:100000000C94460F0C94770F0C94770F0C94770F89
:100010000C94770F0C94770F0C94770F0C94770F48
:100020000C94770F0C94770F0C94770F0C94770F38
:100030000C94770F0C94770F0C94770F0C94770F28
:100040000C94770F0C940F730C94770F0C94770F1C
:100050000C94770F0C94770F0C940B570C947A67D1
:100060000C94770F0C9441360C9437360C94770F20
:100070000C94770F0C94770F0C94770F0C94770FE8
:100080000C9437300C94770F0C94770F0C94770FF7
:100090000C94770F0C94770F0C94770F0C94770FC8
:1000A0000C94770F0C94770F0C9409300C94770F05
:1000B0000C94770F0C94770F0C94770F0C94DB2F24
:1000C0000C94770F0C94770F0C94770F0C94770F98
:1000D0000C94770F0C94770F0C94770F0C94770F88
:1000E0000C94770FD455A756AC56BF56C456D75666
:1000F000E356C4557D6580656F6573657965B76541
:10010000846588658E65926596659C65A065A46525
:10011000B765AA65AE65B26596669B66A066AA6677
:10012000B4662D67BE66C666CE66D866E266EC66C5
:10013000FB6605672D670F6719672367084AD73B7A
:100140003BCE016E84BCBFFDC12F3D6C74319ABDA6
:1001500056833DDA3D00C77F11BED9E4BB4C3E91CA
:100160006BAAAABE000000803F05A84CCDB2D44EB9
:10017000B93836A9020C50B9918688083CA6AAAABB
:100180002ABE000000803F004E414E494E4954595E
:10019000494E46CDCCCC3D0AD7233C17B7D1387752
:1001A000CC2B329595E6241FB14F0A000020410068
:1001B00000C84200401C4620BCBE4CCA1B0E5AAEB2
:1001C000C59D74434F4D4D554E49434154494F4E83
:1001D0000044525952554E004552524F5253004915
:1001E0004E464F004543484F006F6B003F5A206F0B
:1001F0007574206F662072616E676520282D32301D
:1002000020746F203230290A0050726F6265205AC4
:10021000204F66667365743A2000454550524F4D35
:10022000204F4B0A00546F6F206661722066726F18
:100230006D207265666572656E636520706F696EAC
:10024000740A00FFFFFF0000000000000000000033
:1002500000004D65736820706F696E742063616E75
:100260006E6F74206265207265736F6C7665640AC8
:10027000004D34323120696E636F72726563742091
:10028000706172616D657465722075736167650A6E
:100290000064697300656E0043290A0061626C6541
:1002A0006420286D696E2074656D702000436F6C4A
:1002B00064206578747275646573206172652000CE
:1002C000496E76616C6964206578747275646572D4
:1002D0000A0020643A0020693A0020703A00206F3A
:1002E0007574206F662072616E67650A00536572CF
:1002F000766F20003A200020536572766F20002030
:10030000466C6F773A2000486F74656E64206F66A4
:1003100066736574733A004F4646004F4E00205A8C
:1003200000205900580020204D61783A2000205AC2
:1003300000205900580020204D696E3A2000536F6C
:10034000667420656E6473746F70733A2000574151
:10035000524E494E4721204C6F77205A204A6572F1
:100360006B206D6179206C65616420746F20756EFF
:1003700077616E746564207061757365732E0A0011
:10038000205400205200416363656C65726174699A
:100390006F6E3A2050002F2F20004348414D4245B8
:1003A000525F54454D5045524154555245004D4FB2
:1003B00054494F4E5F4D4F44455300544845524DAC
:1003C000414C5F50524F54454354494F4E004155A4
:1003D000544F5245504F52545F53445F535441540D
:1003E00055530050524F4D50545F535550504F523B
:1003F0005400454D455247454E43595F5041525375
:10040000455200434153455F4C494748545F42526F
:10041000494748544E45535300544F47474C455F56
:100420004C494748545300534F4654574152455F37
:10043000504F574552004255494C445F5045524336
:10044000454E54004C4556454C494E475F44415437
:1004500041005A5F50524F4245004155544F4C4560
:1004600056454C005052494E545F4A4F420050523C
:100470004F4752455353004155544F5245504F52E8
:10048000545F54454D5000564F4C554D45545249BC
:100490004300454550524F4D0042494E4152595F2D
:1004A00046494C455F5452414E53464552005345D0
:1004B0005249414C5F584F4E5F584F46460046499F
:1004C000524D574152455F4E414D453A4D61726C18
:1004D000696E206275676669782D322E302E78201D
:1004E000284769746875622920534F555243455F08
:1004F000434F44455F55524C3A68747470733A2FB9
:100500002F6769746875622E636F6D2F4D61726C11
:10051000696E4669726D776172652F4D61726C69A3
:100520006E2050524F544F434F4C5F5645525349E3
:100530004F4E3A312E30204D414348494E455F548D
:100540005950453A3344205072696E7465722045A3
:10055000585452554445525F434F554E543A3220F9
:10056000555549443A63656465326132662D3431CC
:1005700061322D343734382D396231322D633535BF
:100580006336326633363766660A006F6B00205773
:100590003A004D3131332053006F666600E401DFCD
:1005A00001D801D101C30144454255473A002057C3
:1005B0003A0050726F7465637465642050696E0A06
:1005C000002569730025696D202569730025696818
:1005D0002025696D202569730025696420256968D7
:1005E0002025696D202569730025697920256964B6
:1005F000202569682025696D20256973005072697E
:100600006E742074696D653A20004D6573682070C2
:100610006F696E742063616E6E6F74206265207204
:1006200065736F6C7665640A00205A3A2000205981
:100630003A200042656420583A2000486F6D6520DA
:1006400058592066697273740A0047322F47332065
:1006500062616420706172616D65746572730A0015
:100660004572726F722077726974696E6720746F59
:1006700020454550524F4D210A001C3F1D2F0E0FA3
:1006800027301F201E312223212528240A4409FF58
:100690004308FF450A050001627573793A207061CD
:1006A0007573656420666F7220696E7075740A00D8
:1006B000627573793A2070617573656420666F7234
:1006C00020757365720A00627573793A2070726FD3
:1006D00063657373696E670A004B494C4C20636114
:1006E0007573656420627920746F6F206D7563681F
:1006F00020696E6163746976652074696D65202D6B
:100700002063757272656E7420636F6D6D616E64C7
:100710003A20005072696E7465722068616C74656D
:10072000642E206B696C6C28292063616C6C656495
:10073000210A005072696E7465722073746F707054
:1007400065642064756520746F206572726F7273C2
:100750002E2046697820746865206572726F722059
:10076000616E6420757365204D39393920746F20AE
:10077000726573746172742E202854656D70657291
:1007800061747572652069732072657365742E20BB
:100790005365742069742061667465722072657394
:1007A00074617274696E67290A006563686F3A0044
:1007B0004572726F723A0042696C696E65617220AF
:1007C0004C6576656C696E6720477269643A0A0009
:1007D00053544F502063616C6C65642062656361A3
:1007E000757365206F6620424C546F756368206591
:1007F00072726F72202D207265737461727420772B
:10080000697468204D3939390A0053544F502063B8
:10081000616C6C65642062656361757365206F66E9
:1008200020424C546F756368206572726F72202D80
:1008300020726573746172742077697468204D3911
:1008400039390A005072696E7465722073746F7062
:100850007065642064756520746F206572726F72B4
:10086000732E2046697820746865206572726F72F5
:1008700020616E6420757365204D39393920746F9D
:1008800020726573746172742E202854656D7065D2
:100890007261747572652069732072657365742E58
:1008A00020536574206974206166746572207265D6
:1008B0007374617274696E67290A004E6F20436811
:1008C00065636B73756D2077697468206C696E65FC
:1008D000206E756D6265722C204C617374204C69BA
:1008E0006E653A2000636865636B73756D206D6992
:1008F000736D617463682C204C617374204C696E55
:10090000653A20004C696E65204E756D62657220F7
:100910006973206E6F74204C617374204C696E652E
:10092000204E756D6265722B312C204C61737420E2
:100930004C696E653A20004D3131300023646566A4
:10094000696E652044454641554C545F004B642018
:10095000004B6920004B70200050494420417574C1
:100960006F74756E652066696E69736865642120B1
:1009700050757420746865206C617374204B702C02
:10098000204B6920616E64204B6420636F6E73742A
:10099000616E74732066726F6D2062656C6F772074
:1009A000696E746F20436F6E6669677572617469F2
:1009B0006F6E2E680A00504944204175746F74753B
:1009C0006E65206661696C6564212074696D656F70
:1009D00075740A00453220544845524D414C20520E
:1009E000554E4157415900453120544845524D41DB
:1009F0004C2052554E4157415900424544205448DD
:100A000045524D414C2052554E4157415900546872
:100A100065726D616C2052756E6177617900453247
:100A20002048656174696E67206661696C65640061
:100A300045312048656174696E67206661696C653F
:100A400064004265642068656174696E6720666150
:100A5000696C65640048656174696E6720666169E8
:100A60006C656400504944204175746F74756E65FF
:100A7000206661696C6564212054656D70657261E2
:100A80007475726520746F6F20686967680A00204A
:100A90004B643A2000204B693A2000204B703A20EA
:100AA000000A20436C617373696320504944200A33
:100AB000002054753A2000204B753A2000206D61CB
:100AC000783A2000206D696E3A200020643A2000B8
:100AD00020626961733A2000504944204175746F67
:100AE00074756E652073746172740A0050494420F5
:100AF0004175746F74756E65206661696C656421FB
:100B00002054656D706572617475726520746F6FC5
:100B100020686967680A00504944204175746F7401
:100B2000756E65206661696C656421204261642090
:100B30006578747275646572206E756D6265720A8F
:100B400000290A002062797465733B206372632078
:100B50000053657474696E67732053746F726564B3
:100B600020280020746F6F206C6F6E67206578748A
:100B7000727573696F6E2070726576656E746564E8
:100B80000A0020636F6C6420657874727573696FF6
:100B90006E2070726576656E7465640A00426564E5
:100BA0002068656174696E67206661696C656400C0
:100BB00048656174696E67206661696C65640042AE
:100BC000454420544845524D414C2052554E4157C2
:100BD000415900546865726D616C2052756E617781
:100BE00061790045312048656174696E67206661EE
:100BF000696C65640045322048656174696E6720E0
:100C00006661696C65640048656174696E67206639
:100C100061696C656400453120544845524D414C32
:100C20002052554E415741590045322054484552B3
:100C30004D414C2052554E41574159005468657200
:100C40006D616C2052756E617761790070012C01C5
:100C500090012701B0012201C0011D01F00118011E
:100C60001002130130020E0160020901900204011A
:100C7000C002FF000003FA004003F5008003F0000B
:100C8000D003EB002004E6007004E100E004DC0087
:100C90004005D700C005D2004006CD00D006C800F0
:100CA0008007C3003008BE00F008B900C009B400D6
:100CB000B00AAF00B00BAA00D00CA500000EA00037
:100CC000500F9B00C01096005012910000148C0031
:100CD000C0158700B0178200B0197D00D01B7800C6
:100CE000001E730040206E0090226900F024640012
:100CF00040275F0090295A00E02B5500102E50002D
:100D000020304B0010324600E033410090353C006B
:100D10001037370070383200A0392D00B03A280063
:100D2000A03B2300603C1E00103D1900903D1400C4
:100D3000103E0F00703E0A00C03E0500003F00005C
:100D4000403FFBFF803FF6FFC03FF1FF453220549C
:100D50004845524D414C2052554E4157415900454E
:100D60003120544845524D414C2052554E41574137
:100D7000590042454420544845524D414C2052555B
:100D80004E4157415900546865726D616C2052752F
:100D90006E61776179004532204572723A204D418B
:100DA0005854454D50004531204572723A204D410E
:100DB0005854454D50004572723A204D41585445A3
:100DC0004D5020424544004D415854454D502074EB
:100DD0007269676765726564004532204572723AD0
:100DE000204D494E54454D50004531204572723AD0
:100DF000204D494E54454D50004572723A204D49A0
:100E00004E54454D5020424544004D494E54454DA9
:100E1000502074726967676572656400202F002036
:100E200040002042403A0020403A00496E76616C12
:100E300069642065787472756465720A0041637430
:100E40006976652045787472756465723A20004F42
:100E500046460A00466164652048656967687420F3
:100E600000426564204C6576656C696E67200046BB
:100E700061696C656420746F20656E61626C6520C9
:100E8000426564204C6576656C696E670A00496E40
:100E900076616C6964206D6573682E0A00202844B1
:100EA000525952554E2900473239204175746F20EE
:100EB000426564204C6576656C696E67003F20284A
:100EC0004C2C522C462C4229206F7574206F6620C2
:100ED000626F756E64732E0A003F28562965726230
:100EE0006F7365206C6576656C20697320696D7021
:100EF0006C61757369626C652028302D34292E0A67
:100F000000426164205A2076616C75650A004E6F5C
:100F10002062696C696E65617220677269640A009B
:100F2000205A00204500205A00205900204D393217
:100F300020580020496E76616C696420657874726F
:100F40007564657220004361703A00526573656E86
:100F5000643A20002020506C616E6E6572427566A6
:100F600066657242797465733A2000204672656541
:100F7000204D656D6F72793A2000436F6D70696C1A
:100F800065643A204A756C20203120323031390AAC
:100F900000207C20417574686F723A20286E6F6E55
:100FA000652C2064656661756C7420636F6E66697C
:100FB00067290A00323031382D30312D323000208F
:100FC0004C61737420557064617465643A200062EA
:100FD00075676669782D322E302E780A004D617261
:100FE0006C696E0020536F6674776172652052657C
:100FF0007365740A00205761746368646F672052D8
:10100000657365740A002042726F776E206F757485
:101010002052657365740A002045787465726E61AC
:101020006C2052657365740A00506F776572557055
:101030000A0073746172740A00205A3A0020593A07
:101040000020583A00656E6473746F70732068698D
:10105000743A200000002100240027002A002D00FF
:101060003000330001010000040107010A01000003
:101070002200250028002B002E0031003400020140
:101080000000050108010B010000200023002600DC
:1010900029002C002F00320000010000030106018E
:1010A00009010505050507050808080802020202EE
:1010B0000A0A0808040404040101010101010101F4
:1010C0000303030303030303040707070C0C0C0CBF
:1010D0000C0C0C0C020202020606060606060606A8
:1010E0000B0B0B0B0B0B0B0B010210202008081035
:1010F0002040102040800201020108040201010288
:101100000408102040808040201008040201800460
:1011100002018040201008040201080402010102BB
:1011200004081020408001020408102040800000C4
:101130000A0B02090C0D0E08070304010000000051
:10114000000000000000000000000000000000009F
:10115000000000000000000000001211100000005C
:10116000000000000000000000000000000000007F
:10117000000000000000874300008C43000034435F
:1011800000000000000000000000000020746F6FED
:10119000206C6F6E6720657874727573696F6E204E
:1011A00070726576656E7465640A0020636F6C64A6
:1011B00020657874727573696F6E207072657665DC
:1011C0006E7465640A00486F6D696E6720666169B8
:1011D0006C65640000004842000048420000804006
:1011E0005761726E696E673A20486F6D696E67204D
:1011F00042756D702044697669736F72203C2031AE
:101200000A000202040000A0400000A0400000000C
:10121000400000874300008C430000344324F4D492
:101220003050C38E20C2A24017828B7011127A9167
:101230000D816CD90AA861E108C75866076151435E
:10124000061E4B5D05C145A7041A411104093D98CE
:1012500003713931034036DB0265339102D43054D7
:1012600002802E1D02632CEE01752AC501B028A054
:1012700001102781018F2564012B244B01E02234CA
:1012800001AC211F018D200D01801FFC00841EED8B
:1012900000971DDF00B81CD200E61BC600201BBC57
:1012A00000641AB200B219A8000A19A0006A1899BD
:1012B00000D117910040178B00B516840031167EBF
:1012C00000B31579003A157300C7146F0058146AFB
:1012D00000EE1366008813630025135E00C7125BDF
:1012E000006C12570015125400C111510070114FBB
:1012F0000021114B00D61049008D104700461044C4
:101300000002104200C00F4000800F3E00420F3C20
:1013100000060F3B00CB0E3800930E37005C0E35F5
:1013200000270E3400F30D3200C10D3100900D3056
:1013300000600D2E00320D2D00050D2C00D90C2B58
:1013400000AE0C2900850C29005C0C2700350C2709
:10135000000E0C2600E80B2400C40B2400A00B2375
:10136000007D0B23005A0B2100390B2100180B20A4
:1013700000F80A1F00D90A1E00BB0A1E009D0A1DA4
:1013800000800A1D00630A1C00470A1B002C0A1B70
:1013900000110A1A00F7091A00DD091900C4091919
:1013A00000AB091900920917007B0918006309179F
:1013B000004C09160036091600200916000A091506
:1013C00000F5081500E0081400CC081400B8081453
:1013D00000A4081400900813007D0812006B081385
:1013E00000580812004608120034081100230811A2
:1013F000001208110001081100F0071000E00710AA
:1014000000D0071000C0071000B0070F00A10710A0
:101410000091070E0083070F0074070F0065070E89
:101420000057070E0049070E003B070D002E070E60
:101430000020070D0013070D0006070D00F9060C2C
:1014400000ED060D00E0060C00D4060C00C8060CEA
:1014500000BC060C00B0060C00A4060B0099060C9C
:10146000008D060B0082060B0077060B006C060B46
:101470000061060A0057060B004C060A0042060AE5
:101480000038060A002E060A0024060A001A060A78
:10149000001006090007060A00FD050900F4050909
:1014A00000EB050900E2050900D9050900D005098E
:1014B00000C7050900BE050900B5050800AD05080F
:1014C00000A50509009C050800940508008C050886
:1014D00000840508007C050800740508006C0507F9
:1014E00000650508005D050700560508004E050764
:1014F00000470507004005080038050700310507CB
:10150000002A050700230507001C0506001605072D
:10151000000F0507000805060002050700FB04068A
:1015200000F5040700EE040600E8040600E20407E4
:1015300000DB040600D5040600CF040600C904063B
:1015400000C3040600BD040600B7040600B104058C
:1015500000AC040600A6040600A00405009B0406D7
:101560000095040500900406008A04050085040522
:1015700000800406007A0405007504050070040567
:10158000006B04050066040500610405005C0405A9
:101590000057040500520405004D040500480405E9
:1015A00000430405003E0404003A04050035040528
:1015B00000300404002C0405002704040023040563
:1015C000001E0404001A040400160405001104049B
:1015D000000D0404000904050004040400000404D0
:1015E00000FC030400F8030400F4030400F0030407
:1015F00000EC030400E8030400E4030400E0030437
:1016000000DC030400D8030400D4030400D0030466
:1016100000CC030400C8030300C503030024F40442
:10162000D9201BC40C5C0E9804C4095F02650771C5
:1016300001F405F900FB04B30048048700C1036905
:10164000005803550003034500BE023A00840231EE
:101650000053022A002902250004022000E4011C94
:1016600000C8011900AF011700980114008401138C
:1016700000710110006101100051010E0043010DC5
:101680000036010B002B010B0020010B0015010996
:10169000000C01090003010800FB000800F300082A
:1016A00000EB000700E4000600DE000600D800069C
:1016B00000D2000600CC000500C7000500C20005EE
:1016C00000BD000400B9000400B5000400B100042E
:1016D00000AD000400A9000400A5000300A200035F
:1016E000009F0004009B0003009800030095000287
:1016F0000093000300900003008D0002008B0003A4
:1017000000880002008600020084000300810002BD
:10171000007F0002007D0002007B000200790002D1
:1017200000770001007600020074000200720001E0
:1017300000710002006F0002006D0001006C0002E9
:10174000006A0001006900020067000100660001F4
:1017500000650001006400020062000100610001F8
:1017600000600001005F0002005D0001005C0001FC
:10177000005B0001005A00010059000100580001FF
:1017800000570001005600010055000100540001FF
:1017900000530000005300010052000100510001FD
:1017A00000500001004F0001004E0000004E0001FB
:1017B000004D0001004C0001004B0000004B0001F7
:1017C000004A0001004900010048000000480001F3
:1017D00000470001004600000046000100450000EF
:1017E00000450001004400010043000000430001E7
:1017F00000420000004200010041000000410001E1
:1018000000400001003F0000003F0001003E0000DA
:10181000003E0001003D0000003D0001003C0000D2
:10182000003C0000003C0001003B0000003B0001C8
:10183000003A0000003A00010039000000390001C0
:1018400000380000003800000038000100370000B8
:1018500000370001003600000036000000360001AD
:1018600000350000003500000035000100340000A4
:101870000034000000340001003300000033000099
:10188000003300010032000000320000003200018D
:101890000031000000310000003100010030000084
:1018A0000030000000300001002F0000002F000079
:1018B000002F0000002F0001002E0000002E00006D
:1018C000002E0001002D0000002D0000002D000062
:1018D000002D0001002C0000002C0000002C000056
:1018E000002C0001002B0000002B0000002B00004A
:1018F000002B0001002A0000002A0000002A00003E
:10190000002A000100290000002900000029000031
:101910000029000000290001002800000028000024
:101920000028000000280000002800010027000017
:10193000002700000027000000270000002700010A
:1019400000260000002600000026000000260000FF
:1019500000260001002500000025000000250000F1
:1019600000250000002500000025000100240000E3
:1019700000240000002400000024000000240001D6
:1019800000230000002300000023000000230000CB
:1019900000230000002300000023000100220000BB
:1019A00000220000002200000022000000220000AF
:1019B00000220001002100000021000000210000A1
:1019C0000021000000210000002100000021000192
:1019D0000020000000200000002000000020000087
:1019E0000020000000200000002000000020000176
:1019F000001F0000001F0000001F0000001F00006B
:101A0000001F0000001F0000001F0001001E00005A
:101A1000001E0000001E0000001E00000004370031
:101A2000001E290000511B00005810000010090082
:101A300000CC0400007802000041010000626564EF
:101A4000002C2073797374656D2073746F707065EA
:101A50006421204865617465725F49443A20003A08
:101A60000A00546F6F6C2D6368616E67696E673A28
:101A70000A0020204D383531205A005A2D50726FFF
:101A80006265204F6666736574002044002049003B
:101A900020204D33303120500020440020490020C8
:101AA000500020204D3330312045005049442073F0
:101AB000657474696E67733A0A00204A00202047F3
:101AC00032392057204900205A0020204D3432302E
:101AD0002053004175746F20426564204C65766523
:101AE0006C696E673A0A0020590020580020204D8A
:101AF000323138205400486F74656E64206F66661A
:101B0000736574733A0A00205A0020590020204D52
:101B1000323036205800486F6D65206F66667365F9
:101B2000743A0A00204500205A002059002058002D
:101B300020540020530020204D3230352042002018
:101B4000453C6D61785F655F6A65726B3E00205849
:101B50003C6D61785F785F6A65726B3E20593C6DC1
:101B600061785F795F6A65726B3E205A3C6D61787F
:101B70005F7A5F6A65726B3E00416476616E636591
:101B8000643A20423C6D696E5F7365676D656E7483
:101B90005F74696D655F75733E20533C6D696E5F60
:101BA00066656564726174653E20543C6D696E5F64
:101BB00074726176656C5F66656564726174653EBA
:101BC0000020540020520020204D3230342050009C
:101BD000416363656C65726174696F6E2028756E10
:101BE0006974732F7332293A20503C7072696E7495
:101BF0005F616363656C3E20523C72657472616321
:101C0000745F616363656C3E20543C7472617665F9
:101C10006C5F616363656C3E0A00204500205A00DA
:101C200020590020204D3230312058004D61786914
:101C30006D756D20416363656C65726174696F6E6B
:101C40002028756E6974732F7332293A0A00204573
:101C500000205A0020590020204D323033205800F7
:101C60004D6178696D756D20666565647261746536
:101C7000732028756E6974732F73293A0A005374A0
:101C80006570732070657220756E69743A0A002061
:101C9000204D3230302044300A0020204D32303088
:101CA00020543120440020204D3230302044002088
:101CB00044697361626C65640A0046696C616D65B4
:101CC0006E742073657474696E67733A0020286DB2
:101CD0006D29002020473231202020203B20556EE6
:101CE00069747320696E206D6D006F70656E0054AD
:101CF0005249474745524544003A20007A5F6D6992
:101D00006E00795F6D696E00785F6D696E00526577
:101D1000706F7274696E6720656E6473746F702083
:101D20007374617475730A00205A3A0020593A009E
:101D300020436F756E7420583A0020453A00205AAF
:101D40003A0020593A00583A00454550524F4D202C
:101D50006461746173697A65206572726F722E0AAC
:101D600000290A002062797465733B206372632046
:101D7000002073746F7265642073657474696E6794
:101D80007320726574726965766564202800202866
:101D900063616C63756C6174656429210A0020219C
:101DA0003D2000454550524F4D20435243206D6920
:101DB000736D61746368202D202873746F7265647D
:101DC0002920002053697A653A2000496E646578BD
:101DD0003A2000204D61726C696E3D563637290AF3
:101DE00000454550524F4D2076657273696F6E20E5
:101DF0006D69736D617463682028454550524F4D7D
:101E00003D0048617264636F646564204465666187
:101E1000756C742053657474696E6773204C6F61C0
:101E20006465640A00B80B0000B80B000064000091
:101E3000001027000000009643000096430000F0C9
:101E4000410000C8435555854255558542000070F4
:101E5000449A99C64250726F62696E6720666169E2
:101E60006C65640A002066697273740A00486F6DBD
:101E7000652000220A00556E6B6E6F776E20636FCF
:101E80006D6D616E643A20220000B09011241FBE77
:101E9000CFEFD1E2DEBFCDBF00E00CBF13E0A0E08A
:101EA000B2E0EEECF8E301E00BBF02C007900D9248
:101EB000AA34B107D9F72EE0AAE4B3E001C01D921D
:101EC000A832B207E1F71FE0C6E4DFE000E006C099
:101ED00021970109802FFE010E941C9CC534D10767
:101EE00080E00807A9F70E94EE8C0C94659C0C9486
:101EF00000002F923F924F925F926F927F928F924B
:101F00009F92AF92BF92CF92DF92EF92FF920F9388
:101F10001F93CF93DF93CDB7DEB7C155D1090FB66D
:101F2000F894DEBF0FBECDBF91E09093AA048091DC
:101F3000A9048D3411F40C946918843511F40C94AF
:101F4000AC24873411F00C94CC242090A70430905A
:101F5000A8042CE12216310409F488C5D4F444E025
:101F6000241631044CF452E0251631040CF043C021
:101F700037FE35C00C94651884E02816310409F446
:101F800036C595E12916310411F40C94CE240C9435
:101F90006518AAE22A16310409F4D0C764F4EDE109
:101FA0002E16310409F445C6FEE12F16310409F45A
:101FB00044C60C9465182BE52216310409F4F6C6C4
:101FC0003CE52316310409F4F5C64AE5241631042C
:101FD00011F00C9465181092A6040C94CE248091F4
:101FE0002F02882311F40C94CE240E94435E0E9499
:101FF000AB6E0C94CE2480912F02882311F40C94A4
:10200000CE240E94435E82E50E942A29882309F497
:1020100030C10E94AA286B017C0120E030E0A901B8
:102020000E94EE94882309F4DAC44090750D509014
:10203000760D6090770D7090780D8091790D90916C
:102040007A0DA0917B0DB0917C0D8A8F9B8FAC8F08
:10205000BD8F20919604309197044091980450913F
:1020600099042E8F3F8F48A359A380919A04909191
:102070009B04A0919C04B0919D048AA79BA7ACA748
:10208000BDA7C301B2010E94EE9481110DC02AA523
:102090003BA54CA55DA56A8D7B8D8C8D9D8D0E9489
:1020A000EE94882309F49BC411E092E029163104D0
:1020B00009F010E020E030E0A901C701B6010E945C
:1020C000EE94881F8827881F181749F020E030E019
:1020D00040E85FEB2EA73FA748AB59AB08C080E0B4
:1020E00090E0A0E8BFE38EA79FA7A8ABB9ABA30180
:1020F00092016E8D7F8D88A199A10E9433996EA364
:102100007FA388A799A72A8D3B8D4C8D5D8D6AA5ED
:102110007BA58CA59DA50E9433996AA37BA38CA364
:102120009DA32EA13FA148A559A5CA01B9010E94AE
:1021300053954B015C012AA13BA14CA15DA1CA01B1
:10214000B9010E9453959B01AC01C501B4010E94E5
:1021500034990E949F9B4B015C019B01AC0160E0A4
:1021600070E080E89FE30E94109A6AAB7BAB8CAB77
:102170009DAB20E030E040E05FE3C501B4010E9488
:1021800053954B015C01A7019601C701B6010E945E
:1021900053956B017C01A5019401C501B4010E9416
:1021A00053959B01AC01C701B6010E9433990E946F
:1021B0009F9B2EA53FA548A959A90E9453954B0165
:1021C0005C016AA17BA18CA19DA190582AA93BA981
:1021D0004CA95DA90E945395A50194010E945395B5
:1021E0006B017C012E8D3F8D48A159A1C301B20125
:1021F0000E94349920E030E040E05FE30E94539574
:102200009B01AC01C701B6010E943499A301920160
:102210000E9433996B017C012AA53BA54CA55DA5C5
:102220006A8D7B8D8C8D9D8D0E94349920E030E0ED
:1022300040E05FE30E9453952B013C012AA93BA992
:102240004CA95DA96EA17FA188A599A50E9453956F
:10225000A50194010E9453959B01AC01C301B201F9
:102260000E9434992A8D3B8D4C8D5D8D0E9433994F
:1022700014C089E40E942A29882329F00E94AA28F0
:102280006B017C0103C0C12CD12C76018AE40E9431
:102290002A298823D9F00E94AA286AA77BA78CA79D
:1022A0009DA720E030E0A901C701B6010E94EE948D
:1022B00081111AC020E030E0A9016AA57BA58CA598
:1022C0009DA50E94EE9481110FC089C320E030E0EB
:1022D000A901C701B6010E94EE94882309F47FC3C7
:1022E0001AA61BA61CA61DA6A701960150582A8F48
:1022F0003B8F4C8F5D8F8AA59BA5ACA5BDA5B05823
:102300008E8F9F8FA8A3B9A3CA01B9010E945395CC
:102310004B015C012E8D3F8D48A159A1CA01B90125
:102320000E9453959B01AC01C501B4010E943499F0
:102330000E949F9B26966CAF7DAF8EAF9FAF269776
:102340002091750D3091760D4091770D5091780D5B
:102350002EA33FA348A759A7A70196016EA17FA16D
:1023600088A599A50E9434996AAB7BAB8CAB9DABD9
:102370008091790D90917A0DA0917B0DB0917C0D9B
:102380008EA79FA7A8ABB9AB2AA53BA54CA55DA579
:10239000BC01CD010E94349922966CAF7DAF8EAF07
:1023A0009FAF229720919604309197044091980412
:1023B000509199042EAB3FAB48AF59AF2AA93BA926
:1023C0004CA95DA96EA97FA988AD99AD0E943399EA
:1023D0006B017C0180919A0490919B04A0919C04D4
:1023E000B0919D048AAF9BAFACAFBDAF22962CAD30
:1023F0003DAD4EAD5FAD2297BC01CD010E9433993A
:102400004B015C0120917D0D30917E0D40917F0D3F
:102410005091800D2A962CAF3DAF4EAF5FAF2A97FB
:1024200060919E0470919F048091A0049091A104FA
:102430000E9433996AA37BA38CA39DA3A701960155
:102440006A8D7B8D8C8D9D8D0E9453952B013C0157
:10245000A50194016E8D7F8D88A199A10E9453954D
:102460009B01AC01C301B2010E9434992B013C01D4
:10247000A50194016A8D7B8D8C8D9D8D0E94539555
:102480004B015C01A70196016E8D7F8D88A199A1FA
:102490000E9453959B01AC01C501B4010E94339980
:1024A000A30192010E94A7996B017C0120E030E01A
:1024B000A9010E94EE9487FF0AC02BED3FE049EC92
:1024C00050E4C701B6010E9434996B017C012BEDE9
:1024D0003FE049EC50E4C701B6010E94109A20E0A9
:1024E00030E040EC51E40E9453950E94FA990E941A
:1024F0007D9A8B01672B11F401E010E032E0231686
:10250000310451F42BED3FE049EC50E4C701B60132
:102510000E9433996B017C0120E030E0A901C701E2
:10252000B6010E94EE94811122C02EA93FA948ADA8
:1025300059AD6EA17FA188A599A50E94EE94811145
:1025400016C02AAD3BAD4CAD5DAD6EA57FA588A98B
:1025500099A90E94EE9481110AC008E110E03BEDB8
:10256000C32E3FE0D32E39ECE32E30E4F32EA70147
:10257000960126966CAD7DAD8EAD9FAD26970E94DF
:1025800053954B015C0120E030E0A9016AA17BA1D9
:102590008CA19DA10E94EE948823D9F0A5019401FD
:1025A000C501B4010E9453954B015C012AA13BA1D6
:1025B0004CA15DA1CA01B9010E9453959B01AC01D8
:1025C000C501B4010E9434990E949F9B4B015C019C
:1025D0000DC020E030E0A901C501B4010E945A9B62
:1025E00087FF04C0B7FAB094B7F8B0942FE632E191
:1025F00043E85AE3C501B4010E94EE9487FDE3C1AC
:102600004090810D5090820D6090830D7090840DEC
:10261000C501B4010E94A99A0E947D9A1B0160170E
:10262000710708F41801B10180E090E00E94F29473
:102630004B015C019B01AC01C701B6010E94109ADD
:102640006EA37FA388A799A7A50194016AA17BA186
:102650008CA19DA10E94109A26966CAF7DAF8EAF83
:102660009FAF2697A30192016091A2047091A304E9
:102670008091A4049091A5040E943399A50194012E
:102680000E94109A2E966CAF7DAF8EAF9FAF2E97A3
:102690002EA13FA148A559A5CA01B9010E94539591
:1026A00020E030E040E05FE30E9453959B01AC01E5
:1026B00060E070E080E89FE30E9433996EAB7FABEF
:1026C00088AF99AF2A968CAD9DADAEADBFAD2A97C0
:1026D00089879A87AB87BC874D865E866F86788AA6
:1026E00060912D0270912E02072E000C880B990B21
:1026F0000E94F494209168023091690240916A022C
:1027000050916B020E9453952AE037ED43E25CE35F
:102710000E9453956E8B7F8B888F998F0E946E6776
:102720009B01AC0128533F4F4F4F5F4F2AAF3BAF48
:102730004CAF5DAF4A8C5B8C6C8C7D8C41E050E083
:102740005BA34AA359E15EA78AA19BA182159305C9
:1027500008F00FC10E94EF580E946E67DC01CB01A8
:102760002AAD3BAD4CAD5DAD821B930BA40BB50BFD
:10277000B7FD0EC00E946E679B01AC0128533F4F0E
:102780004F4F5F4F2AAF3BAF4CAF5DAF0E94FE3162
:102790003EA531503EA73323E9F12E8D3F8D48A150
:1027A00059A16EA97FA988AD99AD0E9453956B017F
:1027B0007C019201A3016EA17FA188A599A50E9429
:1027C0005395A70196010E9434997B018C019201D7
:1027D000A3016EA97FA988AD99AD0E9453954B01C5
:1027E0005C012E8D3F8D48A159A16EA17FA188A5C6
:1027F00099A50E9453959B01AC01C501B4010E94AB
:1028000033992B013C01C701D8018E8F9F8FA8A35C
:10281000B9A34FC04AA15BA1BA0180E090E00E9439
:10282000F2942EA13FA148A559A50E9453954B01B2
:102830005C010E940D9A6B017C01C501B4010E94EC
:10284000959B4B015C01A70196016A8D7B8D8C8D58
:102850009D8D0E9453952B013C012AA53BA54CA5BB
:102860005DA5C501B4010E945395A30192010E9488
:1028700034992B013C01A50194016A8D7B8D8C8DCF
:102880009D8D0E9453954B015C012AA53BA54CA54B
:102890005DA5C701B6010E9453959B01AC01C5011E
:1028A000B4010E9433996E8F7F8F88A399A359E159
:1028B0005EA79201A3016AA97BA98CA99DA90E9488
:1028C000349969837A838B839C832E8D3F8D48A1B5
:1028D00059A122966CAD7DAD8EAD9FAD22970E9421
:1028E00034996D837E838F83988726962CAD3DAD7A
:1028F0004EAD5FAD269769857A858B859C850E9454
:10290000349969877A878B879C872E962CAD3DAD4D
:102910004EAD5FAD2E976D857E858F8598890E941F
:1029200034996D877E878F87988BCE0101960E94A0
:10293000146EA12CB12C20E8C22E2FE3D22EE090F1
:1029400091048E010A5E1F4F9E01235F3F4FAE012F
:10295000475F5F4FBE016B5F7F4FCE0101960E94C4
:10296000C467882331F08AA19BA101969BA38AA307
:10297000EBCE80E1E6E9F4E0DE01119601900D92E4
:102980008A95E1F7A12CB12C90E8C92E9FE3D92EAE
:10299000E09091048E010A5E1F4F9E01235F3F4F1E
:1029A000AE01475F5F4FBE016B5F7F4FCE01019667
:1029B0000E94C46780E1FE013196A5E7BDE0019069
:1029C0000D928A95E1F70E946E676093920470936E
:1029D000930480939404909395040C94CE240E94C5
:1029E000C8308AE496E00E94A9300C94CE2480E599
:1029F0000E942A29882379F080918F049091900475
:102A0000009749F04AE050E060E070E00E94739364
:102A10006B017C0103C0C12CD12C760183E50E949F
:102A20002A29882361F00E94AA2820E030E04AE7A2
:102A300054E40E9453950E947D9A6B017C010E9490
:102A400090680E946E67C60ED71EE81EF91E0E948F
:102A50006E67DC01CB018C199D09AE09BF09B7FD7A
:102A600002C00C94CE240E94FE31F1CF60E08FE4CE
:102A70000E941761882339F08091640D8770873038
:102A800011F40C94CE240E94906880E00E94532B95
:102A9000B090910421E040E050E0BA0180E00E9453
:102AA00021520E94257281E080938E040E949C7DB9
:102AB00088E50E94E128182F89E50E94E128082F67
:102AC0008AE50E94E128101303C0181719F0012F9E
:102AD000F82E04C001E011E0FF24F3940E94105F7F
:102AE00082E50E942A29882361F00E94AA282B01EE
:102AF0003C0120E030E0A9010E94EE94882361F1BE
:102B000006C0412C512C80E2682E81E4782E1111F0
:102B100002C0002359F140929E0450929F0460929B
:102B2000A0047092A104A301920160917D0D7091A7
:102B30007E0D80917F0D9091800D0E94EE9487FF15
:102B40000BC019821A821B821C82BE016F5F7F4FED
:102B50008EE994E00E944472112319F080E00E94F3
:102B6000DA6C002319F081E00E94DA6CFF2009F48E
:102B70004DC080E00E94612F8091530D837083309F
:102B800039F00E94CB308BE396E00E94A9303EC022
:102B90000E94D67CE0907D0DF0907E0D00917F0D1F
:102BA0001091800DE0929E04F0929F040093A00487
:102BB0001093A10480E090E0A0E0B3E48093960439
:102BC00090939704A0939804B093990480E090E0C8
:102BD000A5E3B3E480939A0490939B04A0939C0490
:102BE000B0939D0419821A821B821C82DE01119609
:102BF0006D0120E030E045E353E460E070E080E008
:102C000093E40E948B7B82E00E94DA6C0E94D67C67
:102C100080918D0480938E040E940C7221E040E02C
:102C200050E0BA018B2D0E9421520E94AB7D0C9482
:102C3000CE240E943D610C94CE2420E030E040EE92
:102C400050E46091750D7091760D8091770D9091A3
:102C5000780D0E943499AB01BC0188E50E94AC3B21
:102C60006E8B7F8B888F998F20E030E044E252E4B6
:102C70006091790D70917A0D80917B0D90917C0D12
:102C80000E943399AB01BC0189E50E94AC3B9B01DA
:102C9000AC0169837A838B839C836E897F89888D5D
:102CA000998D0E943E5C882311F40C94CE2480E020
:102CB0000E94532B0E94257261E085E40E941761F7
:102CC00021E0482FBE016F5F7F4FCE0146960E94E4
:102CD000538A6B017C019B01AC010E94E09B811136
:102CE0005FC08E889F88A88CB98C20E030E0A90155
:102CF000C501B4010E94EE9487FF05C027E137EBC0
:102D000041E558EB04C027E137EB41E558E3C50145
:102D1000B4010E943499AB01BC0183E396E00E94A8
:102D2000103689809A80AB80BC8020E030E0A90119
:102D3000C501B4010E94EE9487FF05C027E137EB7F
:102D400041E558EB04C027E137EB41E558E3C50105
:102D5000B4010E943499AB01BC018EE296E00E945E
:102D6000103620E030E0A901C701B6010E94EE94C0
:102D700087FF05C027E137EB41E558EB04C027E1A9
:102D800037EB41E558E3C701B6010E943499AB0126
:102D9000BC0189E296E00E9410368AE00E94A230CF
:102DA0000E940C720E94AB7D0C94CE249093A604DA
:102DB0000C94CE24BCE62B2EB2E03B2E11E8E12E83
:102DC00014E0F12EE5E7FDE0FB8FEA8F04E5C02E6D
:102DD0000DE0D02E00E010E0D1018D911D010E9488
:102DE0002A29882309F44BC00E94AA282B013C0100
:102DF000133049F0F60120813181428153810E94D4
:102E000033992B013C01AA8DBB8D2D913D914D91A4
:102E10005C91C301B2010E9433994B015C012DEB1F
:102E200037E346E855EB0E945A9B87FD0AC02DEB1D
:102E300037E346E855E3C501B4010E94EE94181645
:102E4000F4F4133051F44092810D5092820D60924F
:102E5000830D7092840D01E012C0A5019401F70169
:102E600060817181828193810E943499D7016D9331
:102E70007D938D939C931397812F0E94BA6C1F5F53
:102E8000B4E0EB0EF11CEA8DFB8D3496FB8FEA8FDC
:102E9000F4E0CF0ED11C143009F09ECF002309F4CA
:102EA00049C02091590430915A0440915B045091DB
:102EB0005C046091810D7091820D8091830D9091E1
:102EC000840D0E9453950E94659B60931A0E709327
:102ED0001B0E80931C0E90931D0E9091F80D809107
:102EE000F90D981719F00E94326824C00E9490686A
:102EF00080916F00982F927081FF05C080916F00C4
:102F00008D7F80936F0040911A0E50911B0E60913F
:102F10001C0E70911D0E409335045093360460933F
:102F2000370470933804992329F080916F008260F0
:102F300080936F000E94AB7D0C94CE2480912F0271
:102F4000882311F40C94CE2489E40E942A29082FA6
:102F5000882321F00E942B61E82E01C0E12C8AE435
:102F60000E942A29182F882321F00E942B61F82E15
:102F700001C0F12C002319F022E02E1528F01123B6
:102F800049F032E03F1530F48AE096E00E94A93023
:102F90000C94CE240E94105F0023F1F020912104B4
:102FA000309122044E2D4203B001439F700D112435
:102FB0008091250490912604680F791F072E000C3C
:102FC000880B990B0E94F494609396047093970475
:102FD00080939804909399041123F1F02091230495
:102FE000309124045F2D5203B001539F700D1124C2
:102FF0008091270490912804680F791F072E000CF8
:10300000880B990B0E94F49460939A0470939B042C
:1030100080939C0490939D0460E080E50E9417617A
:10302000882381F10023B1F020E030E040EE50E44D
:1030300060919604709197048091980490919904FE
:103040000E94339960939604709397048093980438
:10305000909399041123B1F020E030E044E252E46F
:1030600060919A0470919B0480919C0490919D04BE
:103070000E94349960939A0470939B0480939C04FB
:1030800090939D0440E050E0BA0186E40E94AC3B7E
:103090006B017C0120E030E0A9010E945A9B1816C8
:1030A00084F420E030E040E752E4C701B6010E941A
:1030B000109A609368027093690280936A029093F9
:1030C0006B020E94AB6E0C94CE240E94148A0C9466
:1030D000CE240091A7041091A8040B39110509F41E
:1030E00030C50CF0F0C00A36110509F450C50CF0DB
:1030F0004AC00135110509F479C554F50A321105A4
:1031000009F443C2A4F40231110509F482C50F3158
:10311000110509F493C10131110511F00C94A92492
:103120001798A2984798449841980C94CE240C3450
:10313000110509F44DC20D34110509F45EC20B34BA
:10314000110511F00C94A9240E94753B0C94CE2417
:103150000535110509F490C554F40335110509F43A
:1031600054C50CF056C51092D7030C94CE240836E3
:10317000110509F446C20CF0D1C40C35110509F44F
:1031800094C50C94A9240237110509F42CC69CF4AB
:103190000E36110509F410C43CF40C36110509F47F
:1031A00066C40CF41AC553C20037110509F462C491
:1031B0000CF413C463C40737110509F453C60CF0AB
:1031C00076C00537110511F40C94CE240CF010C60E
:1031D0000337110511F00C94A9248EEB94E00E94A2
:1031E000A93060E08EEA94E00E94295E60E089E9FF
:1031F00094E00E94295E61E082E994E00E94295EE9
:1032000061E087E894E00E94295E61E087E794E04E
:103210000E94295E60E08EE694E00E94295E61E0F3
:1032200084E694E00E94295E61E08AE594E00E94D1
:10323000295E61E082E594E00E94295E61E084E419
:1032400094E00E94295E60E086E394E00E94295E9B
:1032500060E087E294E00E94295E60E089E194E00A
:103260000E94295E60E083E094E00E94295E60E0B5
:1032700082EF93E00E94295E60E083EE93E00E947B
:10328000295E60E08EEC93E00E94295E61E08BEBAA
:1032900093E00E94295E60E08EEA93E00E94295E3E
:1032A00060E08AE993E00E94295E0C94CE240937FD
:1032B000110509F4E2C50CF4D8C50C38110509F460
:1032C00004C40C94A9240E3281E0180711F40C9464
:1032D00007230CF052C0033D110509F4BBC644F5A9
:1032E0000B3C110509F460C674F4083C110509F49F
:1032F000CBC5093C110509F430C60E3B110511F090
:103300000C94A924FBC30D3C110509F478C60CF4F8
:103310006CC60E3C110511F00C94A9241CE6C12EBC
:1033200012E0D12E05E9E02E03E0F02E10E07FC67A
:103330000D3D110509F4A2C774F40A3D110509F405
:1033400052C70C3D110509F48DC7093D110511F057
:103350000C94A92435C70831A1E01A0711F40C9484
:10336000DD210D32B1E01B0711F40C947222023EF4
:10337000110511F00C94A924D6C70C3AE1E01E0700
:1033800011F40C94BC2374F5023921E0120711F4F6
:103390000C94512394F4003941E0140711F40C9477
:1033A000482314F00C944B230F32114011F00C946D
:1033B000A9240E94C33B0C94CE24043A91E019073F
:1033C00011F40C945723053AA1E01A0711F40C9458
:1033D0005A230A39114011F00C94A9240E94EC2DB3
:1033E0000C94CE24073FE1E01E0711F40C944A240C
:1033F00094F4053F21E0120711F40C94442414F0D6
:103400000C944724043F114011F00C94A9240E940D
:103410008F360C94CE24033553E0150711F40C9429
:103420006224073E83E0180711F40C949D24083FA2
:10343000114011F00C94A9240C9451240E94263BB5
:103440007B018C0120E831E541E050E00E94DC98EE
:10345000C9016DE671E00E94089C4B015C01C80146
:10346000B70120E13EE040E050E00E94DC98CA0154
:10347000B90128E130E040E050E00E94DC98762E6F
:10348000672EC62ED72EACE32A2E312C412C512C80
:10349000C801B701A20191010E94DC98F62EE72E27
:1034A000CA01B901A20191010E94DC98CB018E01F1
:1034B0000F5F1F4F8114910499F0EF92FF927F9359
:1034C0006F936F927F92BF92AF929F928F9289EE8D
:1034D00095E09F938F931F930F930E94C09413C006
:1034E000A114B104B1F0EF92FF927F936F936F92AA
:1034F0007F92BF92AF9289ED95E09F938F931F9338
:103500000F930E94C0940FB6F894DEBF0FBECDBFDC
:1035100030C0CD2879F0EF92FF927F936F936F9236
:103520007F928DEC95E09F938F931F930F930E9452
:10353000C094E9CF892B69F0EF92FF927F936F934C
:1035400085EC95E09F938F931F930F930E94C094F7
:10355000DACFEF92FF9281EC95E09F938F931F93C8
:103560000F930E94C0940F900F900F900F900F90A8
:103570000F900E94CB30B8018DEF95E00E94B730DC
:103580008AE00E94A2300C94CE2483E50E942A296E
:10359000882311F40C94CE240E941A5FF82E6DE05B
:1035A00070E080E50E942F618C0197FF02C00C94AF
:1035B000CE24E82E60E089E40E94176181110C940A
:1035C000E124802F0E949A8C8111C9C60C94E124B9
:1035D00080911F04813011F00C94CE2482E08093FE
:1035E0001F040E946E6760931B0470931C048093F9
:1035F0001D0490931E040C94CE240E94973B0C94BF
:10360000CE2480911A0483FF02C00C94CE240E9421
:103610002E5F182F87FF02C00C94CE2483E50E94F2
:103620002A29882381F00E94AA280E94789ADC0126
:10363000CB017C01612F0E94424056E5E516F10462
:1036400014F40E94973B0E94BE8C0C94CE2480916F
:103650001A0483FF02C00C94CE240E942E5F8E8F2A
:1036600087FF02C00C94CE2483E50E942A298EABEA
:10367000811106C082E50E942A29182F8823C1F0F3
:103680000E94AA280E94789ADC01CB016E8D0E94CC
:1036900042400E94AA2820E030E04AEA52E40E9418
:1036A000EE94181614F40C94F4240E94973B11E045
:1036B0000E94BE8C112311F40C94CE2481E08093DF
:1036C0002C021EA21FA218A619A61AAE1BAE1CAE73
:1036D0001DAE27968FAF27971AA623961FAE239766
:1036E0009CE32B969FAF2B97ACE12F96AFAF2F9714
:1036F000B6E46096BFAF6097C12CD12CE0E8EE2E07
:10370000FFEBFF2E812C912C5401EE8DF7E1EF029F
:10371000C001112484519C4F9C01285F3F4F629649
:103720003FAF2EAF6297AC014C5F5F4F5B8F4A8F0C
:103730006296AEADBFAD62976D917C91072E000C85
:10374000880B990B0E94F494162F072F382E292EE0
:103750009601A7010E94EE948823E1F0EA8DFB8D8B
:103760002081318142815381FEA9612F702F832DE9
:10377000922DF11107C00E94EE94881F8827881FA0
:103780008AA70CC00E94EE9487FF02C00C94CE243E
:103790001AA604C01C2D0D2D3E2C2F2C0E946E67E6
:1037A0006B017C01DC01CB012AAD3BAD4CAD5DADC5
:1037B000821B930BA40BB50BB7FD33C0D701C60119
:1037C00088519C4FAF4FBF4F8AAF9BAFACAFBDAFDF
:1037D0008E8D0E94A3548EEA95E00E94A930811438
:1037E0009104A104B104B9F0D501C401805F984DE2
:1037F000AF4FBF4FBC01CD016C197D098E099F09E8
:1038000028EE33E040E050E00E94DC98CA01B901A4
:103810000E94FB3403C08FE30E94A2308AE00E9422
:10382000A2300E94FE310E946E67609392047093F2
:1038300093048093940490939504AA8DBB8DBC91BE
:10384000BAA3EA8DFB8DF181FEA7AA8DBB8D1296DE
:10385000BC91BAABEA8DFB8DF381FEAF2AA13EA5E8
:103860004B2F5F2F612F702F832D922D0E94339944
:103870002B013C0120E030E0A9010E945A9B87FF08
:1038800004C077FA709477F8709481149104A104BD
:10389000B104C1F420E030E040E85FE3C301B201CD
:1038A0000E94EE9487FF1AC027962FAD27974601F6
:1038B0005701222399F030E1830E37E2931EA11CB9
:1038C000B11C0CC020E030E040E450E4C301B20180
:1038D0000E945A9B181614F4460157014AA5442326
:1038E00009F44AC08EA19FA1A8A5B9A5892B8A2B4E
:1038F0008B2B61F0D701C6012EA13FA148A559A588
:10390000821B930BA40BB50BB7FD36C02AA13EA5B5
:103910004AA95EAD23966FAD23972B967FAD2B976B
:103920002F968FAD2F9760969FAD60970E94339929
:1039300020E030E040EC5FE30E94EE9487FF02C09D
:103940000C94CE24D701C601805A9541AF4FBF4F8A
:103950008EA39FA3A8A7B9A79AA123969FAF239749
:10396000AEA52B96AFAF2B97BAA92F96BFAF2F97C7
:10397000EEAD6096EFAF609780912C02882311F432
:103980000C94CE2481149104A104B10441F427962F
:103990001FAE2797C12ED02EE32CF22CC9CEF0E11A
:1039A000CF1AF7E2DF0AE108F108C818D908EA08D7
:1039B000FB08F7FCECCFF2C78EE40E942A2988238B
:1039C00009F4ECC70E949A286093E8037093E90316
:1039D0008093EA039093EB03E1C783E50E94E1281B
:1039E000882331F060E083E50E94575F80931A04DA
:1039F0000E94CB3087EA95E00E94A930C0901A045B
:103A0000CC2069F17DE9A72E75E0B72E00E010E02B
:103A100080E0D12CE12CF12CB701A601002E04C0CE
:103A200076956795579547950A94D2F740FF0EC053
:103A300099249394980E882319F08CE20E94A23066
:103A4000F501859194910E94A930892D0F5F1F4F38
:103A500022E0A20EB11C05301105F1F604C089E97F
:103A600095E00E94A9308AE00E94A23097C7109288
:103A70002C0294C780E090E00E948D3183E50E9483
:103A80002A29882371F00E941A5F282F30E02D33F5
:103A900031051CF480932B0281C78CE380932B02A9
:103AA0007DC70E94CB30C0902B02D12CE12CF12C91
:103AB00082E995E00E94A9304AE0C701B6010E9460
:103AC00085348AE00E94A23069C780911A0483FD80
:103AD00065C783E50E942A29882309F45FC70E94ED
:103AE000AA280E94789A6C3871050CF48B01109307
:103AF000E6030093E5030E94425750C780911A04E1
:103B000083FD4CC783E50E942A298AAB811170C7C7
:103B100082E50E942A2981116BC740C70E942E5F4F
:103B2000182F87FD0AC08BE895E00E94A930812FED
:103B30000E94A3548AE00E94A2301092AA040C941E
:103B4000B92783E50E942A29882309F427C70E9400
:103B50001A5F182F90E0CD970CF01CE31093DC0354
:103B60000E946E676B017C01212F30E0A8EEB3E06C
:103B70000E942499C60ED71EE81EF91EC092D803D3
:103B8000D092D903E092DA03F092DB0307C760E03A
:103B900080E50E94575F811101C781E40E94E128FE
:103BA000882341F0E0919104F0E0E05EFB4F6081FA
:103BB000062F02C00FEF10E083E50E942A29882318
:103BC00049F00E949A288B016F3F710519F010F09F
:103BD0000FEF10E000932004E1C660E080E50E9452
:103BE000575F8111DBC610922004D8C60E949157FE
:103BF0000E94973B0E949A691092200468EE73E03D
:103C000080E090E00E94C52DC9C681E08093D70373
:103C1000C5C683E50E942A29882399F00E94AA2814
:103C200020E030E04AE754E40E9453950E947D9AD8
:103C300060932702709328028093290290932A02AE
:103C4000ADC688E50E94E12881110C94702689E5B3
:103C50000E94E12881110C9470268AE50E94E128D7
:103C600081110C94702685E40E94E12881110C9446
:103C700070260E949A6992C683E50E94E1288823F3
:103C800009F48CC60E94AA2820E030E04AE754E4F8
:103C90000E9453950E947D9A6093D0037093D10344
:103CA0008093D2039093D30379C60E942E5F87FD41
:103CB00075C69091CC0394FD04C09091CE0397FFFC
:103CC0000AC03CE6C32E32E0D32E49E3E42E44E0A2
:103CD000F42E10E009C09091CF03937091F7682FF4
:103CE00081E00E94C65E5AC6D6018D916D010E9488
:103CF0002A29882309F46DC0133009F063C00E949B
:103D0000AA284B015C0120E030E040EA51E40E9427
:103D1000EE9487FF4EC0A501940160915904709103
:103D20005A0480915B0490915C040E94109A2B01CC
:103D30003C019B01AC016091C8037091C903809163
:103D4000CA039091CB030E9453956093C80370936C
:103D5000C9038093CA039093CB03A301920160919E
:103D6000690470916A0480916B0490916C040E94C4
:103D700053956093690470936A0480936B049093E5
:103D80006C046091B8037091B9038091BA0390916B
:103D9000BB030E94F294A30192010E9453950E94DA
:103DA0007D9A6093B8037093B9038093BA0390939C
:103DB000BB038092590490925A04A0925B04B09283
:103DC0005C0407C00E94AA28F701648B758B868B60
:103DD000978B1F5FF4E0EF0EF11C143009F084CFD5
:103DE0000E941B50DBC50E9490680E94AB7DD6C527
:103DF0000091AA031091AB0383E0F12C40E08150C5
:103E0000E9F0D8019C91292F2B7F2134C1F711961D
:103E10002C912133A1F7913421F0953421F441E024
:103E200002C0FF24F39498012E5F3F4F89012F5F5A
:103E30003F4FF80190819032C9F3E1CF41110E94C8
:103E4000CB30FF2021F086E993E00E94A930D80111
:103E50008D918D01882319F00E94A230F8CF0E9425
:103E60001F369CC50E94497D99C581E080938E04D0
:103E700080938D040E949C7D91C510928E041092B7
:103E80008D040E949C7D8AC50E942E5F182F87FD9D
:103E900085C584E40E94E128882309F45BC00E9460
:103EA000AA286B017C0101E020E030E0A9010E941A
:103EB000EE94811101C000E00093A90320E030E0FE
:103EC000A901C701B6010E94EE94882309F442C0FB
:103ED0000E94AA28B4E01B02F0011124EF55FC4F08
:103EE000608371838283938320E030E0A901609135
:103EF000A1037091A2038091A3039091A4030E9457
:103F0000EE9481110CC080E090E0A0EEBFE38093BE
:103F1000A1039093A203A093A303B093A40320E072
:103F200030E0A9016091A5037091A6038091A703D9
:103F30009091A8030E94EE9481110CC080E090E063
:103F4000A0EEBFE38093A5039093A603A093A703DD
:103F5000B093A8030E94EA6921C50E942E5F87FDE5
:103F60001DC59CE6E92E92E0F92E09E314E029E450
:103F7000C22E24E0D22EF70181917F010E94E12818
:103F8000882351F00E94AA280E947D9AD8016D933F
:103F90007D938D939C9313970C5F1F4FC016D10692
:103FA00051F70E94D44FFAC40E942E5F87FDF6C4D9
:103FB0008CE6E82E82E0F82E09E314E0F701819107
:103FC0007F010E94E128882349F00E94AA28D80195
:103FD00094966D937D938D939C9397970C5F1F4F51
:103FE000B4E009341B0751F7D9C48091CD0387FD94
:103FF0009EC68091CE038E7009F099C6D6C6809178
:10400000CC03827109F0F9C68091CE038C7809F057
:10401000F4C68091CF03837009F0EFC6BFC41F5F61
:10402000B4E0EB0EF11C133011F40C949A17F60166
:1040300081916F010E94E128882389F30E94AA28B8
:10404000D7016D937D938D939C931397812F0E943D
:10405000BA6CE5CF0E94CB308EE393E00E94A9308A
:1040600083E50E94E128882321F00E94625F80930B
:10407000260280912602882319F08BE193E002C08A
:1040800087E193E00E94A93086E393E00E94A93083
:104090002091540D3091550D4091560D5091570D72
:1040A00060910E0270910F028091100290911102A6
:1040B0000E943499AB01BC0184E393E00E94103666
:1040C0002091580D3091590D40915A0D50915B0D32
:1040D0006091160270911702809118029091190256
:1040E0000E943499AB01BC0181E393E00E94103639
:1040F00020915C0D30915D0D40915E0D50915F0DF2
:1041000060911E0270911F02809120029091210205
:104110000E943499AB01BC018EE293E00E941036FC
:1041200086E293E00E94A9302091540D3091550D04
:104130004091560D5091570D6091120270911302EB
:1041400080911402909115020E943499AB01BC0138
:1041500084E293E00E9410362091580D3091590D61
:1041600040915A0D50915B0D60911A0270911B02A3
:1041700080911C0290911D020E943499AB01BC01F8
:1041800081E293E00E94103620915C0D30915D0D2C
:1041900040915E0D50915F0D60912202709123025B
:1041A00080912402909125020E943499AB01BC01B8
:1041B0008EE193E00E9410368AE00E94A230EEC3A6
:1041C0008AE50E942A29882349F0C4D76093910385
:1041D0007093920380939303909394038091CF0301
:1041E00081FDDCC382C60E942E5F182F87FDD6C3D7
:1041F00088E50E942A29882359F0ACD724E01202CE
:10420000F0011124E758FC4F60837183828393830C
:1042100089E50E942A29882359F09CD734E01302AB
:10422000F0011124EF57FC4F6083718382839383E5
:104230008AE50E942A29882359F08CD744E0140289
:10424000F0011124E757FC4F6083718382839383CD
:104250008091CE0387FDA2C38091CF03837009F0C4
:104260009DC347C683E5F6D7882309F497C30E9408
:104270002B6190932E0280932D0290C30E942E5F9B
:10428000F82E87FD8BC383E5E5D70F2D0F2C000C8F
:10429000110B882369F10E942B61F801EE0FFF1FBB
:1042A000E65FFD4F91838083000F111F000F111FE8
:1042B000F801EE5FFD4F7F01BC01990F880B990B50
:1042C0000E94F4942AE037ED43E25CE30E945395A8
:1042D000F801EF58FC4F20813181428153810E94C7
:1042E0005395D7016D937D938D939C93139756C3EC
:1042F0000E94CB3085E40E94A23080E38F0D0E94A3
:10430000A230000F111FF801E65FFD4F608171813F
:104310008FEF92E00E94153585E20E94A2308AE07C
:104320000E94A2303BC380E54CD7882309F436C3F2
:1043300060E070E080E50E942F61F82E6FEF7FEF64
:1043400083E50E942F618C010196039708F026C334
:10435000F7FC24C38F2D0E949A8C882339F00E9489
:10436000C83082EB95E00E94A93018C30E94906883
:1043700060E08F2D0E9433660F3FBFEF1B0731F0C7
:104380000130110571F000E010E00DC08F2D0E948A
:10439000DD6531E020E0892B09F030E0032F122F9A
:1043A00002C001E010E08F2D0E94DD6580179107AB
:1043B00009F4F4C20E94FE31F6CF80E502D78823CB
:1043C00009F4ECC20E942B618C01892B09F07EC09C
:1043D00083E5F7D6882389F00E942B618F3FEFEFAA
:1043E0009E0729F482EF9DE00E94192ED7C2BC01DE
:1043F00082EF9DE00E94582ED1C20E94CB3060E037
:1044000070E087EF92E00E9415358091F40D28E569
:1044100032E06901C81AD10887FDD394CC0CDD1CA9
:10442000CC0CDD1C0D2C000CEE08FF088091F30D68
:1044300028E830E04901881A910887FD9394880C98
:10444000991C880C991C092C000CAA08BB088091A7
:10445000F20D8F3FC1F090E0FC01EE0FFF1F8E0FB9
:104460009F1FFC01EB57F24F2181328153E0220F55
:10447000331F5A95E1F764E0369527956A95E1F781
:104480002E5F3F4F02C020E030E02F5F3F4FC90159
:10449000330FAA0BBB0B9C01AD01281939094A093E
:1044A0005B09A4EBB0E00E941A99A70196012819B4
:1044B00039094A095B090E94FE98B90184EF92E02C
:1044C0000E9415358AE00E94A23068C20E94C8305E
:1044D000B8018DEE92E00E9415358EED92E00E94BB
:1044E000A9305CC260E085E40E94575F082F8230EB
:1044F00008F086C080E565D610E0882369F02AD6EA
:1045000027E1209FF001219FF00D1124E451FC4F81
:10451000638774878587968789E453D68823C1F09B
:1045200019D647E1409F9001419F300D1124A90108
:1045300044515C4F7A012CEA35EC47E25EE30E947D
:104540005395D7011F966D937D938D939C935297AE
:1045500084E437D68823C1F0FDD547E1409F900120
:10456000419F300D1124F901E451FC4F7F012CEAE9
:1045700035EC47E25EE30E94109AD70153966D93A3
:104580007D938D939C9356970E94CB3027E1209F7B
:10459000C001219F900D11248C0104511C4FF80182
:1045A00043855485658576858AED92E00E941036B4
:1045B0002CEA35EC47E25EE3D8011F966D917D91C0
:1045C0008D919C9152970E94109AAB01BC0186ED8F
:1045D00092E00E9410362CEA35EC47E25EE3F801E7
:1045E00063897489858996890E945395AB01BC01C2
:1045F00082ED92E00E9410368AE00E94A230CEC185
:104600000E94C83080EC92E00E94A930C7C183E5C7
:10461000D8D5182F882369F09DD50E94789A709379
:1046200001026093000221E0672B09F020E0209353
:10463000700380E5C6D5882359F02091000230919F
:104640000102232B11F00E94625F80937003A6C1C8
:104650001111A4C10E94CB308DEA92E00E94A930D2
:1046600080917003882319F085E992E002C081E906
:1046700092E00E94A93060910002709101028CE9E1
:1046800092E00E94153588E992E00E94A93086C127
:104690000E94906883C181E00E94B57A0E94AB7D40
:1046A0007DC180E00E94B57A0E94AB7D77C10E94F7
:1046B000715F74C16FEF7FEF89E40E942F61182F43
:1046C0006FEF7FEF8AE40E942F61082F8AE579D58A
:1046D000F82E811104C081E574D5D82E01C0D12CEB
:1046E00017FD06C007FD04C0F11009C0D11007C0B6
:1046F0000E94C83081E792E00E94A9304FC1133078
:1047000010F4033038F00E94C83082E592E00E9435
:10471000A93044C1E12E110FFF08002E000C110B2F
:1047200019D5D701AA0FBB1FDD2081F0FD01EE0DC9
:10473000FF1DE00FF11FEE0FFF1FEE0FFF1FE45BE9
:10474000FC4F208131814281538103C020E030E061
:10475000A901EA0EFB1E0E0D1F1D000F111F000FF9
:10476000111F045B1C4F0E943499D8016D937D93F7
:104770008D939C93139712C10E94228A81110EC1BE
:1047800006E412E0E5E7FDE0FB8FEA8F9E012F5F74
:104790003F4F590123E4822E22E0922E1501F801A9
:1047A0006591759185919491AA8DBB8DCD90DD9089
:1047B000ED90FD90BB8FAA8FA70196010E943399BF
:1047C0002B013C01F101608371838283938320E09C
:1047D00030E040EA51EC0E945A9B87FD0AC020E07D
:1047E00030E040EA51E4C301B2010E94EE94181691
:1047F0002CF4F401849118160CF4B0C3D101CD90BF
:10480000DD90ED90FD901D0120E030E040EA51EC9C
:10481000C701B6010E945A9B87FD0AC020E030E024
:1048200040EA51E4C701B6010E94EE9418163CF428
:104830000E94C83085E292E00E94A930AFC00C5FB0
:104840001F4FBFEF8B1A9B0AE2E5F2E0E017F1077A
:1048500009F0A5CF95E9E92E93E0F92E10E0F501D6
:1048600081919191A191B1915F01F7018193919310
:10487000A193B1937F01812F0E94BA6C1F5F133007
:1048800071F70E94AB7D8AC00E94168987C00E9482
:10489000878184C061E083E50E9417610E945C7E8D
:1048A0007DC081E080934B030E94BF8210924B0336
:1048B000882309F473C00E94CB308AE192E00E9401
:1048C000A9306CC08AE5C6D4882329F143D46B0192
:1048D0007C0120E030E040EA51EC0E945A9B87FDC9
:1048E00013C020E030E040EA51E4C701B6010E9465
:1048F000EE9418164CF0C092600DD092610DE092CB
:10490000620DF092630D4AC00E94C8308CEE91E0B7
:104910000E94A93043C00E94CB304091600D50915D
:10492000610D6091620D7091630D89E092E00E94CB
:1049300010368AE00E94A23031C081E080932F02BD
:1049400060E083E50E941761811128C00E94145C19
:1049500025C00E94148A22C01091A704809191045E
:10496000181731F060E083E50E941761082F01C03D
:1049700001E040E050E0BA0186E40E94AC3B20E058
:1049800030E040E752E40E94109AAB01BC01202FB6
:10499000812F0E94215202C00E94148A1092AA0400
:1049A000E0914A03F0E0E25EF14F8081882309F450
:1049B000E0C289EE91E00E94A9308AE00E94A23014
:1049C000D8C261E0802F0E9433666F2D802F0E9435
:1049D00005666F2D70E0802F0E946F66F5E0EF1284
:1049E000DDCFF0922004DACF0E94753B0C94571B68
:1049F000B1D30E94789A6C3871050CF06EC1709337
:104A0000E6036093E5030E944257A4D320E030E020
:104A100040EA50E40E945A9B181614F40E94753B19
:104A200081E080932C021E8E1F8E18A219A222965E
:104A30001CAE1DAE1EAE1FAE22971A8E1AAE3CE300
:104A400027963FAF27974CE123964FAF239756E425
:104A50002B965FAF2B97C12CD12C50E8E52E6FEB36
:104A6000F62E8EAB812C912C54016091E503709150
:104A7000E603072E000C880B990B0E94F494162F66
:104A8000072F782E692E9601A7010E94EE948823A5
:104A9000E9F02091E1033091E2034091E30350916A
:104AA000E4039AA9612F702F872D911108C0962DCC
:104AB0000E94EE94881F8827881F8A8F0BC0962D2E
:104AC0000E94EE9487FD6ACF1A8E04C01C2D0D2D16
:104AD0007E2C6F2C0E946E676B017C01DC01CB0188
:104AE00022962CAD3DAD4EAD5FAD2297821B930B50
:104AF000A40BB50BB7FD36C0D701C60188519C4F3A
:104B0000AF4FBF4F22968CAF9DAFAEAFBFAF2297D6
:104B1000809191040E94A3548EE895E00E94A930F0
:104B200081149104A104B104B9F0D501C401805FDE
:104B3000984DAF4FBF4FBC01CD016C197D098E0957
:104B40009F0928EE33E040E050E00E94DC98CA0163
:104B5000B9010E94FB3403C08FE30E94A2308AE0B7
:104B60000E94A2300E94FE310E946E676093920400
:104B70007093930480939404909395049091E1032F
:104B80009AA7A091E203AEA3B091E303BAA3E09188
:104B9000E403EEA7292F3A2F4B2F5E2F612F702FA2
:104BA000872D962D0E9433991B012C0120E030E0C7
:104BB000A9010E945A9B87FF04C057FA509457F8E6
:104BC000509481149104A104B104B1F420E030E0C8
:104BD00040E85FE3C201B1010E94EE9487FF18C074
:104BE000FEA946015701FF2399F020E1820E27E23A
:104BF000921EA11CB11C0CC020E030E040E450E447
:104C0000C201B1010E945A9B181614F446015701C3
:104C10003A8D332309F444C08E8D9F8DA8A1B9A18C
:104C2000892B8A2B8B2B61F0D701C6012E8D3F8DEE
:104C300048A159A1821B930BA40BB50BB7FD30C043
:104C40002AA53EA14AA15EA56AAD27967FAD27970A
:104C500023968FAD23972B969FAD2B970E94339968
:104C600020E030E040EC5FE30E94EE9487FD96CEBA
:104C7000D701C601805A9541AF4FBF4F8E8F9F8F8E
:104C8000A8A3B9A39AA59AAFAEA12796AFAF2797CD
:104C9000BAA12396BFAF2397EEA52B96EFAF2B9724
:104CA00080912C02882309F479CE81149104A10407
:104CB000B10431F41EAAC12ED02EE72CF62CD5CE8D
:104CC000F0E1CF1AF7E2DF0AE108F108C818D908C5
:104CD000EA08FB08F7FCEECF61CE6CE870E08FCEFF
:104CE0000E94906888E56DD2882331F0179A8091F0
:104CF000530D8E7F8093530D89E563D2882331F065
:104D0000A29A8091530D8D7F8093530D8AE559D2DD
:104D1000882331F0479A8091530D8B7F8093530DF8
:104D200085E44FD2882309F439CE53D737CE83E5B3
:104D300091D2882389F00ED260936D0470936E0433
:104D400080936F049093700460937504709376045D
:104D5000809377049093780480E57CD2882349F08F
:104D6000F9D160936D0470936E0480936F049093F7
:104D7000700482E56FD2882349F0ECD1609371040E
:104D800070937204809373049093740484E562D2E8
:104D9000882309F403CEDED1609375047093760402
:104DA0008093770490937804F9CD40916D045091ED
:104DB0006E0460916F047091700486E893E00E9425
:104DC0001036409171045091720460917304709197
:104DD000740483E893E00E9410364091750450916A
:104DE0007604609177047091780480E893E00E94E3
:104DF00010368AE00E94A230D1CD82E4E2D188232D
:104E0000C1F080918F0490919004009739F04AE0AE
:104E100050E060E070E00E94739303C060E070E0D7
:104E2000CB016093490470934A0480934B049093A0
:104E30004C0483E5C6D1882349F08CD16093790472
:104E400070937A0480937B0490937C0484E5B9D1B9
:104E5000882349F07FD160937D0470937E04809312
:104E60007F049093800488E5ACD1882349F072D107
:104E70006093BC037093BD038093BE039093BF0304
:104E800089E59FD1882349F065D16093C003709371
:104E9000C1038093C2039093C3038AE592D1882310
:104EA000A9F058D16093C4037093C5038093C603DF
:104EB0009093C7032DEC3CEC4CEC5DE30E94EE9428
:104EC000181624F08EE493E00E94A93085E479D18D
:104ED000882309F463CD3ED16093C8037093C9035E
:104EE0008093CA039093CB0359CD80E00E94015F69
:104EF00055CD0E94CB3087E093E00E94A93009E7AE
:104F000013E081E8E82E83E0F82E80E20E94A230D0
:104F1000D8016D917D918D919D918D0142E00E940E
:104F200020358CE20E94A230F8016481758186816F
:104F3000978142E00E9420358CE20E94A230D80185
:104F40001C966D917D918D919C911F9743E00E94DD
:104F50002035E016F106C9F60C94331DF7FAF094EB
:104F6000F7F8F094D101CD92DD92ED92FC92139777
:104F700045CCCF5ADF4F0FB6F894DEBF0FBECDBF82
:104F8000DF91CF911F910F91FF90EF90DF90CF9025
:104F9000BF90AF909F908F907F906F905F904F9059
:104FA0003F902F900895CF92DF92EF92FF920F9350
:104FB0001F93CF93DF936C018B017A01EC01C255F3
:104FC000DB4F888187FF04C0FB011182108224C05F
:104FD0002CE02C9DC0012D9D900D11242881AC0149
:104FE000420F511D27FD5A952091F10D30E04217D7
:104FF000530794F42881AC01420F511D27FD5A95A7
:105000009A01FA01EE0FFF1F2E0F3F1FF901EB5718
:10501000F24F208126FD19C088818F5F88832CE0A4
:105020002C9DC0012D9D900D11242881AC01420FB3
:10503000511D27FD5A952091F10D30E0421753077D
:10504000BCF428812C3044F113C02881820F911DBB
:1050500027FD9A95FC01EE0FFF1F8E0F9F1FFC018D
:10506000EB57F24F808160E08F730E940566D4CFCA
:10507000F80180819181049680349C4918F480E481
:105080009CE904C0F801808191810496F701918325
:1050900080838FEF888345C0F8014081518128814A
:1050A000BC01620F711D27FD7A959B01FB01EE0F7C
:1050B000FF1F2E0F3F1FF901EB57F24F2181328165
:1050C000240F351FF701318320832881AC01420F63
:1050D000511D27FD5A959A01FA01EE0FFF1F2E0F61
:1050E0003F1FF901EB57F24F208126FF1AC028819C
:1050F000820F911D27FD9A95FC01EE0FFF1F8E0F69
:105100009F1FFC01EB57F24F808161E08F73DF91AD
:10511000CF911F910F91FF90EF90DF90CF900C9463
:105120000566DF91CF911F910F91FF90EF90DF9077
:10513000CF90089580918F0490919004009731F062
:105140004AE050E060E070E00C94489260E070E06B
:10515000CB0108950F931F93CF9380918F0490916B
:105160009004009711F1FC018F01C1912C2F2F7D2C
:10517000A9F0C53411F0C536B9F7F801108260E026
:1051800070E080918F04909190040E94F590F80156
:10519000C083562F472F382F292F0BC060E070E0B7
:1051A000CF911F910F910C94F59050E040E030E0CA
:1051B00020E0652F742F832F922FCF911F910F9195
:1051C000089581548A3108F042C0E82FF0E0409100
:1051D000CC035091CD036091CE037091CF0304C0F6
:1051E00076956795579547958A95D2F7842F817064
:1051F00040FF2FC0EA59F94F9081992309F1E091BE
:10520000660DF091670DE90FF11D908120ED290FDA
:105210002A3098F09E3211F491810CC09D3211F029
:105220009B3271F4918120ED290F2A3030F09E32AB
:1052300039F4928190539A3018F42E2F9F2F02C088
:1052400020E090E020938F0490939004089580E0F4
:1052500008950895B6DF882341F081E020918F04FE
:1052600030919004232B09F480E008954F925F92CF
:105270006F927F928F929F92AF92BF92CF92DF9266
:10528000EF92FF920F931F93CF93DF93EC01609106
:10529000250470912604072E000C880B990B0E94A0
:1052A000F4949B01AC01688179818A819B810E9481
:1052B00033996B017C016091270470912804072EBB
:1052C000000C880B990B0E94F4949B01AC016C813B
:1052D0007D818E819F810E9433994B015C012091D9
:1052E0003602309137024091380250913902C7019D
:1052F000B6010E94EE94882309F466C0C09236027B
:10530000D0923702E0923802F09239022091E20402
:105310003091E3044091E4045091E504C701B601E3
:105320000E9453952B013C010E94A99A6B017C01BC
:1053300020E030E0A9010E94EE9487FD10C020E03B
:1053400030E040E050E4C701B6010E945A9B1816B5
:105350004CF4C12CD12CE12C00E4F02E03C0C12C64
:10536000D12C7601A7019601C301B2010E943399A5
:105370002B013C0120E030E0A9010E94EE9487FD62
:1053800009C04092DE045092DF046092E004709203
:10539000E10408C01092DE041092DF041092E004D1
:1053A0001092E104C701B6010E94789A6093DD046F
:1053B000062E000C770B6F5F7F4F6230710514F083
:1053C00062E070E06093DC0420913202309133029D
:1053D0004091340250913502C501B4010E94EE940F
:1053E000D0913102C091DD04811103C0DC1367C08C
:1053F0002DC18092320290923302A0923402B09278
:1054000035022091E6043091E7044091E804509180
:10541000E904C501B4010E9453954B015C010E944F
:10542000A99A6B017C0120E030E0A9010E94EE9472
:1054300087FD10C020E030E040E050E4C701B60135
:105440000E945A9B18164CF4C12CD12CE12C10E46C
:10545000F12E03C0C12CD12C7601A7019601C50104
:10546000B4010E9433994B015C0120E030E0A901B6
:105470000E94EE9487FD09C08092D8049092D904CE
:10548000A092DA04B092DB0408C01092D804109203
:10549000D9041092DA041092DB04C701B6010E940D
:1054A000789A6093D704062E000C770B6F5F7F4FBE
:1054B0006230710514F062E070E06093D6042091D0
:1054C000D704DC1305C080913002821709F474C040
:1054D000C0933102209330028C2FCC0F990BC22F36
:1054E000220FDD0B9C01220F331F820F931FFC0143
:1054F000EC0FFD1FEE0FFF1FEE0FFF1FE45BFC4FD5
:1055000020813181428153812093D2043093D3048E
:105510004093D4045093D5040091D604002E000C7F
:10552000110BFC01E00FF11FEE0FFF1FEE0FFF1F2D
:10553000E45BFC4F60817181828193810E94339989
:105540006093CE047093CF048093D0049093D104E1
:10555000E091DC040E2E000CFF0BCF01880F991F89
:10556000E80FF91FCE0FDF1FCC0FDD1FCC0FDD1FA3
:10557000C45BDC4F288139814A815B812093CA0456
:105580003093CB044093CC045093CD04E00FF11F33
:10559000EE0FFF1FEE0FFF1FE45BFC4F6081718178
:1055A000828193810E9433996093C6047093C704EB
:1055B0008093C8049093C9048090D8049090D90433
:1055C000A090DA04B090DB042091CE043091CF0497
:1055D0004091D0045091D104C501B4010E9453956B
:1055E0002091D2043091D3044091D4045091D50439
:1055F0000E9434996B017C016093C2047093C304D0
:105600008093C4049093C5042091C6043091C704CC
:105610004091C8045091C904C501B4010E9453953A
:105620002091CA043091CB044091CC045091CD0418
:105630000E943499A70196010E9433996093BE0499
:105640007093BF048093C0049093C1042091BE0462
:105650003091BF044091C0045091C1046091DE04B8
:105660007091DF048091E0049091E1040E945395D1
:105670002091C2043091C3044091C4045091C504E8
:105680000E943499DF91CF911F910F91FF90EF907D
:10569000DF90CF90BF90AF909F908F907F906F9052
:1056A0005F904F900895CF93DF93CDB7DEB72C97DF
:1056B0000FB6F894DEBF0FBECDBF882331F0209126
:1056C000210430912204232B51F19091740D8917FC
:1056D00031F10E9490688CE0E0E7F2E0DE01119683
:1056E00001900D928A95E1F7CE010196BFDD809180
:1056F000740D882359F04DE75DE069E77DE085E7AB
:105700009DE00E94634F1092740D07C081E080936A
:10571000740D85E79DE00E94304F0E94D67C2C9648
:105720000FB6F894DEBF0FBECDBFDF91CF910895C5
:1057300080E0B9DF10922404109223041092220416
:10574000109221041092280410922704109226042B
:1057500010922504ECE4F3E020E733E080E090E0F1
:10576000A0ECBFE780839183A283B3838483958376
:10577000A683B78380879187A287B3873C962E172D
:105780003F0781F70895CF92DF92EF92FF926091E9
:10579000210470912204072E000C880B990B0E94A3
:1057A000F4946B017C012DEB37E346E855EB0E9446
:1057B0005A9B87FD0AC02DEB37E346E855E3C70146
:1057C000B6010E94EE9418164CF4A701960160E011
:1057D00070E080E89FE30E94109A03C060E070E0F0
:1057E000CB016093E2047093E3048093E40490930C
:1057F000E5046091230470912404072E000C880BAB
:10580000990B0E94F4946B017C012DEB37E346E881
:1058100055EB0E945A9B87FD0AC02DEB37E346E803
:1058200055E3C701B6010E94EE9418164CF4A70187
:10583000960160E070E080E89FE30E94109A03C048
:1058400060E070E0CB016093E6047093E70480931E
:10585000E8049093E904FF90EF90DF90CF900895D3
:105860002F923F924F925F926F927F928F929F9270
:10587000AF92BF92CF92DF92EF92FF920F931F935E
:10588000CF93DF93CDB7DEB72E970FB6F894DEBF78
:105890000FBECDBF182FF62E042FA22E282F30E0DA
:1058A0003A872987862F90E09C878B87220F331FAA
:1058B000E985FA852E0F3F1F3E872D87FC01E20FF9
:1058C000F31FEE0FFF1FEE0FFF1FE45BFC4F608125
:1058D0007181828193819B01AC010E94E09B8823AE
:1058E00009F43AC1100F6F2D6A0D812F90E0DC0191
:1058F000AA0FBB1FA80FB91FEB85FC85EA0FFB1F82
:10590000EE0FFF1FEE0FFF1FE45BFC4FB080C18066
:10591000D280E380100F812F90E0AC01440F551F1F
:10592000480F591FEB85FC85E40FF51FEE0FFF1F95
:10593000EE0FFF1FE45BFC4FF0800181128193802A
:10594000862F90E0ED85FE85E80FF91FEE0FFF1F13
:10595000EE0FFF1FE45BFC4F8080718062805380FC
:105960006A0D70E02D853E85260F371F220F331FED
:10597000220F331F245B3C4F3E872D87F901408067
:105980003180A2802380A80FB91FAA0FBB1FAA0FC6
:10599000BB1FA45BBC4FFC91F98311962C9111970E
:1059A0002A8312963C9112973B8313968C918C8399
:1059B000FA01E60FF71FEE0FFF1FEE0FFF1FE45B6C
:1059C000FC4F90819D8321812E8332813F8383818F
:1059D00088872F2D302F412F592D6F2D702F812F1C
:1059E000992D0E94E09B882321F0F12C00E010E02B
:1059F000912C2B2D3C2D4D2D5E2D6B2D7C2D8D2D29
:105A00009E2D0E94E09B882319F0BF2C6801E92C91
:105A1000242D332D4A2D522D642D732D8A2D922D38
:105A20000E94E09B882321F0412C312CA12C212CB9
:105A3000282D372D462D552D682D772D862D952D0A
:105A40000E94E09B882321F0842C732C6A2C522C1A
:105A50002D813E814F8158856D817E818F81988512
:105A60000E94E09B882321F01D821E821F821886DF
:105A700029813A814B815C8169817A818B819C810A
:105A80000E94E09B882341F09D819983EE81EA8307
:105A9000FF81FB8328852C8389859A85880F991F30
:105AA000E985FA858E0F9F1F2B853C85820F931FFA
:105AB000880F991F880F991F845B9C4F9A8789874D
:105AC0002B2D3C2D4D2D5E2D6B2D7C2D8D2D9E2D4A
:105AD0000E9434992F2D302F412F592D0E94339938
